S20902690019 05262978170000241225120005128128          0526297817                                                               
D201202412259618918   0114987222697415SPÄÛ°Á0.25MG¢Ò²¼Þ£  PTP     1200T       00001000006218000006218000068402810  04473        
E200000030000012412251200                                                                                                       
S20901660013 05262978170000241225130123128128          0526297817                                                               
D2022024122540290     0114987084319548±Ú¼ÞµÝ ¶ÞÝ¹Ý ¸Ø-Ñ 0.(ÁÕ-ÌÞ²Ø) 0.5% 2GX1000001000030664000030664000337342609  AEC0005      
D2022024122540290     0214987235012519Û·¿ÌßÛÌ´ÝNAÃ-Ìß 50MG  7CMX10CM    7Ï²X1000001000000767000000767000008612609  4L220        
D2022024122540885     0114946306111322PARI ÎÞ±ÃÂ¸½ Ï½¸Å¼ 0M23-002-04       1ÎÝ0000100000198000000198000000000      24009        
E200000050000032412251301                                                                                                       
