S20902690019 05262978170000241225100001128128          0526297817                                                               
D201202412259611049   0114987333023561±¸ËÞÁÔÝÉºÄÞÓ¾·ÄÞÒ¼ÛÂÌßS     120ML       00001000000780000000780000000002711  W4B001       
D201202412259611049   0214987858100044±½ÄÐÝ ¼ÞÖ³10MG PTP    10MG   100T       00002000000618000001236000006802706  H032R01      
D201202412259612770   0114987476123944ÍÊßØÝÙ²¼ÞÌÞÂ¼ÂÛ°¼ÖÝ0.3%¢YD 50GX10       00001000001818000001818000020002709  Y24P10       
D201202412259612770   0214987190117717ÍÊßØÝÙ²¼ÞÌÞÂ¼ÂÕ¾²¸Ø°Ñ0.3%  25GX10       00001000001159000001159000012752702  24G811       
D201202412259612770   0314987123002097ÌÙÁ¶¿ÞÝÌ×Ý¶ÙÎÞÝ»Ý´½Ã56ÌÝÑ    6Gx1       00005000000537000002685000005912703  N87N         
E200000070000052412251000                                                                                                       
