S20902020014 05262978172507240926050411128128          0526297817                                                               
D201202409260352449   0114987641074194²ÝÃÊÞÝ¸Ø-Ñ1%                1%    25GX1000001000000832000000832000009252704  54291        
D201202409260352449   0214987116530170´¸ÒÂÄÊ²ºÞ³¼ÞÖ³HD           PTP      100T00001000004248000004248000050202701  P2318        
D201202409260352449   0314987650650105¸Ú½Ä-Ù¼ÞÖ³2.5MG      2.5MG PTP      100T00001000001836000001836000021302702  93040        
D201202409260352449   0414987233102878½-¸Þ×¼ÞÖ³50MG         50MG PTP      100T00001000014716000014716000170402701  24024Y1      
D201202409260352449   0514987233105343½-¼ÞÔÇÊ²ºÞ³¼ÞÖ³            PTP      100T00001000016382000016382000191702701  24026M1      
D201202409260352450   0114987155112122ÄºÌ´Û-ÙÆºÁÝ»Ý´½ÃÙ¶Ìß 100MG PTP    100CAP00001000000495000000495000005502705  A0999        
D201202409260352450   0214987174111311É²ÛÄÛËßÝ¼ÞÖ³4ÀÝ²        4E PTP      100T00001000002538000002538000028502805  24098        
D201202409260352450   0314987770529800ÊßÙÓÃÞ²±XR¼ÞÖ³0.2MG  0.2MG PTP      100T00001000005345000005345000060002706  ES4E         
D201202409260352450   0414987792101084ÌÞÃÞÎÙ·Õ³ÆÕ³ÌÝÏÂ»Þ²6                 1ÎÝ00001000001214000001214000013652605  406050       
D201202409260352450   0514987171659304ÒºÊÞ×ÐÝ¼ÞÖ³500UG¢SW£ 500UG PTP     1000T00001000005182000005182000057002612  723Z52       
D201202409260352451   0114987616003655µ¾ÞÝËßÂ¸Ë¶ÁÕ³2MG           2MG 1.5MLX1ÎÝ00001000009672000009672000108792608  NP5K133      
D201202409260352620   0114987035209713ÚÊÞÐËßÄÞ¼ÞÖ³100MG¢µ- 100MG PTP      500T00001000004040000004040000050502705  4E90RT1      
D201202409260352680   0114987185809917¼ÞÔÇËÞ±¼ÞÖ³50MG       (¶Â¾Ý²Ø) PTP  140T00001000013409000013409000156102511  Y005480      
E200000150000132409260504                                                                                                       
S20902960013 05262978170000240926060021128128          0526297817                                                               
D2012024092615577594091014987352002417ËÔ¸¿³¶ÞÝ 500²Ø                          0000100000036000000036000000000290430B9189-1      
E200000030000012409260600                                                                                                       
