S20901660013 05262978170000240903100207128128          0526297817                                                               
D2012024090343986     0114987428879905ËÕ-ÏÛ¸Þ ÁÕ³ ÐØµÍßÝ       300ÀÝ² 3MLX2·ÂÄ00002000002109000004218000023682609  D666205JL    
D2012024090343986     0214987123154352À¹·ÔÌÞ ¼ÞÖ³ 10MG      PTP   10MG    100T00001000008624000008624000096802701  558880       
D2012024090343986     0314987443384446´ÝÚ½Ä ¼ÞÖ³ 200MG      PTP  200MG    100T00001000015243000015243000171102701  P0502        
D2012024090343986     0414987116530170´¸ÒÂÄ Ê²ºÞ³¼ÞÖ³ HD    PTP           100T00002000004473000008946000050202701  P2309        
D2012024090343986     0514987123415880×Ý¿Ìß×¿Þ-Ù OD¼ÞÖ³ 15  PTP   15MG    100T00003000001046000003138000012402703  KD351        
D2012024090343986     0614987087035049PL Ê²ºÞ³¶ØÕ³                     1GX100000001000005790000005790000065002903  9532         
D2012024090343986     0714987080362012Ä±×¾ÂÄ Ê²ºÞ³¼ÞÖ³ ¢»Ü  PTP           100T00001000001299000001299000014302612  423Z06       
D2012024090343986     0814987185809917¼ÞÔÇËÞ± ¼ÞÖ³ 50MG (¶  PTP   50MG  14TX1000001000013908000013908000156102605  X022145      
D2012024090343987     0114987081120048¶ÙÌÞÛÂ¸ ¼ÞÖ³ 16MG     PTP   16MG    100T00001000002700000002700000030302612  GGA2422      
D2012024090343987     0214987035622611ÄÙÊÞÌßÀÝ OD ¼ÞÖ³ 15M  PTP   15MG     20T00001000010694000010694000125342607  3G74TDB1     
D2012024090343987     0314987925111256ÚÐÆ-Ù OD ¼ÞÖ³ 8MG     PTP    8MG   14TX400001000005029000005029000056442701  24B020J      
D2012024090343987     0414987116530132´¸ÒÂÄ Ê²ºÞ³¼ÞÖ³ LD    PTP           100T00001000004544000004544000051002612  P0480        
D2012024090343987     0514987081187836¼ÛÄÞ¼Ý OD ¼ÞÖ³ 4MG ¢  PTP    4MG    100T00004000001318000005272000014502611  CVJ1803      
D2012024090343987     0614987222000505ÒÏÝÁÝ´Ý»Ý´Ý OD ¼ÞÖ³1  PTP   10MG     14T00002000000527000001054000005902607  00104        
D2012024090343987     0714987443333819´Â¸½Ìµ-¼Þ Ê²ºÞ³¼ÞÖ³   PTP         14TX1000001000004041000004041000045362611  P0902        
D2012024090343987     0814987497305619¼±ÉºÊÞ×ÐÝ ÃÝ¶ÞÝ´· 0.      0.02%    5MLX500001000000385000000385000004322702  240011       
D2012024090343988     0114987901007405¿×ÅÂ¸½ 0.8MG ¼ÞÖ³     PTP  0.8MG    500T00001000003830000003830000043002509  HE2244       
E200000190000172409031002                                                                                                       
