S20901660013 05262978170000241118100128128128          0526297817                                                               
D2012024111817860     0114987428879806ËÕ-ÏÛ¸Þ ÐÂ¸½ 50 ÁÕ³      300ÀÝ² 3MLX2·ÂÄ00001000002170000002170000024362701  D715086EG    
D2012024111817860     0214987081186907Û½ÊÞ½ÀÁÝ ¼ÞÖ³ 2.5MG   PTP  2.5MG    100T00001000001036000001036000011402611  81530        
D2012024111817860     0314987376056212ÄºÌ´Û-ÙÆºÁÝ»Ý´½ÃÙ ¶Ì¢ÆÁ²º³£  PTP    100P00001000000681000000681000007502703  CP1501       
D2012024111817860     0414987233102878½-¸Þ× ¼ÞÖ³ 50MG       PTP   50MG    100T00001000015182000015182000170402703  24034Y1      
D2012024111817860     0514987123158367²Æ¼Ý¸ Ê²ºÞ³¼ÞÖ³       PTP           100T00001000012071000012071000135502701  558443       
D2012024111817860     0614987123136389ÌÞÛÌßÚ½ ¼ÞÖ³ 8        PTP    8MG    100T00001000004357000004357000048902701  KB011        
D2012024111817860     0714987616003631ÍßÝÆ-ÄÞÙ Ìß×½ 32G     4MM         14ÎÝX500001000001201000001201000000002904  PS7E16B-1    
E200000090000072411181001                                                                                                       
