S20902020014 05262978170971240716130249128128          0526297817                                                               
D201202407160028259   0114534551012091½³²-ÄÏ-ËÞ- ÌÙ-ÂÐÂ¸½· HABA 1209       49G0000300000020800000062400000000251003             
D201202407160028419   0114987116530217´¸±¼ÞÖ³50MG           50MG PTP      100T00001000005398000005398000060602608  P1727        
D201202407160028419   0214987081189656¶Þ×ÝÀÐÝOD¼ÞÖ³4MG¢DSE   4MG PTP       56T00001000001033000001033000011542512  BB1B029      
D201202407160028419   0314987650650105¸Ú½Ä-Ù¼ÞÖ³2.5MG      2.5MG PTP      100T00001000001933000001933000021302612  92440        
D201202407160028419   0414987057251097ºÆ-Ù¼ÞÖ³4              4MG PTP      100T00001000001727000001727000019402605  199ACE       
D201202407160028419   0514987080034711¾ÝÉ¼ÄÞ¼ÞÖ³12MG¢»Ü²£   12MG PTP      100T00001000000464000000464000005102801  724101       
D201202407160028420   0114987158701569ËÞµ½Ø-Ê²ºÞ³¼ÞÖ³            PTP      630T00001000003777000003777000041582703  0844         
D201202407160028420   0214987306066984ËÞµÌ´ÙÐÝR¼ÞÖ³              PTP      100T00001000000533000000533000005902707  034H1        
D201202407160028479   0114987222671422ÎßËÞÄÞÝÖ-ÄÞ¶Þ-¸ÞÙ´·7        7%   30MLX5000001000004364000004364000048002704  00182        
E200000110000092407161302                                                                                                       
