S20901660013 05262978170000241111100125128128          0526297817                                                               
D2012024111105651     0114987616002467ÉÎÞ×ËßÂÄÞ ÁÕ³ ÌÚÂ¸½Í    300ÀÝ² (3ML)X2ÎÝ00002000002675000005350000029222512  PT6DM33      
D2012024111105651     0214987123154352À¹·ÔÌÞ ¼ÞÖ³ 10MG      PTP   10MG    100T00001000008536000008536000096802704  560439       
D2012024111105651     0314987123416603ÎÞ¸ÞØÎÞ-½ OD¼ÞÖ³ 0.2£ PTP  0.2MG    100T00002000000851000001702000010102705  KF011        
D2012024111105651     0414987123416627ÎÞ¸ÞØÎÞ-½ OD¼ÞÖ³ 0.3£ PTP  0.3MG    100T00001000000851000000851000010102705  KF021        
D2012024111105651     0514987123873758¼ÞÌ´ÆÄÞ-Ù´Ý»Ý´Ý ¼ÞÖ³  PTP   25MG    100T00002000000508000001016000005702703  GS0365       
D2012024111105651     0614987376069519±ÄÙÊÞ½ÀÁÝ ¼ÞÖ³ 10MG   PTP   10MG    100T00001000000999000000999000011002608  HK0101       
D2012024111105651     0714987213052810ËÙÄÞ²ÄÞ ¿ÌÄ ÅÝº³ 0.3              25GX1000001000004121000004121000046252708  FE05Y        
D2012024111105651     0814987213053510ËÙÄÞ²ÄÞ Û-¼ÖÝ 0.3%                25GX1000001000004121000004121000046252704  FE0C4        
D2012024111105652     0114987616003631ÍßÝÆ-ÄÞÙ Ìß×½ 32G     4MM         14ÎÝX500003000001201000003603000000002903  PS7D14B-1    
D2012024111105653     01149871231391822MG ¾Ù¼Ý ¼ÞÖ³         PTP    2MG    100T00001000000535000000535000006002909  KD011        
D2012024111105653     0214987128320011ÌÞÛÁ¿Þ×Ñ ¼ÞÖ³ 0.25MG  PTP 0.25MG    100T00001000000900000000900000010102703  J794         
D2012024111105654     0114987058565032ÌÙÆÄ×¾ÞÊßÑ ¼ÞÖ³ 1MG   PTP    1MG    100T00001000000500000000500000005702704  2410         
E200000140000122411111001                                                                                                       
