S20902020014 05262978172870241108050238128128          0526297817                                                               
D201202411080643633   0114987286105147·Ö³ÆÝ½²                            500ML00001000000700000000700000008302801  4E06         
D201202411080643785   0114987616003631ÍßÝÆ-ÄÞÙ Ìß×½ 32G      32G 4MM    14ÎÝX500001000001081000001081000000002906  PS7G03B-1    
D201202411080643786   0114987616003211×²¿ÞÃÞ¸ÞÊ²ºÞ³ÁÕ³ÌÚÂ¸      300U   3MLX2ÎÝ00003000003173000009519000035622607  PP5L619      
D201202411080643909   0114987173016273³Û¶ÙÝ¼ÞÖ³225MG       225MG PTP      100T00003000000519000001557000005902705  270201       
D201202411080643988   0114987413580717ÚÝÄÞÙÐÝ¼ÞÖ³0.25MG   0.25MG PTP      100T00001000001038000001038000012502603  489008       
D201202411080643989   0114987081183579ÚÎÞÌÛ·»¼Ý¼ÞÖ³500MG¢D 500MG PTP       50T00001000003053000003053000034952705  BQA0394      
D201202411080644000   0114987616003631ÍßÝÆ-ÄÞÙ Ìß×½ 32G      32G 4MM    14ÎÝX500001000001081000001081000000002906  PS7G03B-1    
D201202411080644001   0114987616003211×²¿ÞÃÞ¸ÞÊ²ºÞ³ÁÕ³ÌÚÂ¸      300U   3MLX2ÎÝ00003000003173000009519000035622607  PP5L619      
D201202411080644585   0114987080100119¸´Ý»ÝÀÞ²²ÁÃÂNA¼ÞÖ³50  50MG PTP      100T00001000000563000000563000006202707  724713       
D201202411080644585   0214987188415832Û·¿ÌßÛÌ´ÝNAÃ-Ìß100MG     100MG    7Ï²X1000002000001071000002142000011972606  B707Y        
D201202411080645467   0114987286105239¾È¶Þ¼ÛÂÌß                          500ML00001000000797000000797000008952804  4H15         
D201202411080645467   0214987443384446´ÝÚ½Ä¼ÞÖ³200MG       200MG PTP      100T00001000015108000015108000171102704  P0548        
D201202411080645467   0314987081186907Û½ÊÞ½ÀÁÝ¼ÞÖ³2.5MG¢DS 2.5MG PTP      100T00001000001015000001015000011402611  81430        
D201202411080645468   0114987616003211×²¿ÞÃÞ¸ÞÊ²ºÞ³ÁÕ³ÌÚÂ¸      300U   3MLX2ÎÝ00003000003173000009519000035622607  PP5L619      
D201202411080645523   0114987081185740Ì´ÌÞ·¿½ÀÂÄ¼ÞÖ³20MG¢D  20MG PTP      100T00001000000953000000953000010702612  20165        
D201202411080645523   0214987081186907Û½ÊÞ½ÀÁÝ¼ÞÖ³2.5MG¢DS 2.5MG PTP      100T00001000001015000001015000011402611  81430        
E200000180000162411080502                                                                                                       
S20902960013 05262978170000241108060024128128          0526297817                                                               
D2012024110815768443091014987080615033Ëß-´²Ê²ºÞ³ H 1000T                      0000100000420000000420000004700281231839J         
E200000030000012411080600                                                                                                       
S20901660013 05262978170000241107224851128128          0526297817                                                               
D2012024110801048     0114987616003211×²¿ÞÃÞ¸Þ Ê²ºÞ³ÁÕ³ ÌÚ     300ÀÝ² 3MLX2·ÂÄ00002000003271000006542000035622605  PP5L142      
D2012024110801048     0214987616003655µ¾ÞÝËßÂ¸ Ë¶ÁÕ³ 2MG        2MG 1.5MLX1·ÂÄ00001000009982000009982000108792608  NP5K134      
D2012024110801048     0314987123157520¶ÝÃÞ»ÙÀÝ ¼ÞÖ³ 4MG ¢±  PTP    4MG    100T00001000001430000001430000016802705  Y764A        
D2012024110801048     0414987081186907Û½ÊÞ½ÀÁÝ ¼ÞÖ³ 2.5MG   PTP  2.5MG    100T00001000001036000001036000011402611  81430        
D2012024110801048     0514987123418164ÃÞÕÀ½ÃØÄÞ ¶Ìß¾Ù 0.5MÊÞ£ PTP 0.5MG    30P00001000000775000000775000008762708  DL4D         
D2012024110801048     0614987123416627ÎÞ¸ÞØÎÞ-½ OD¼ÞÖ³ 0.3£ PTP  0.3MG    100T00001000000851000000851000010102705  KF021        
D2012024110801048     0714987616003631ÍßÝÆ-ÄÞÙ Ìß×½ 32G     4MM         14ÎÝX500001000001201000001201000000002903  PS7D01B-1    
D2012024110801556     0114987123415880×Ý¿Ìß×¿Þ-Ù OD¼ÞÖ³ 15  PTP   15MG    100T00001000001046000001046000012402707  KG281        
D2012024110801556     0214987376056212ÄºÌ´Û-ÙÆºÁÝ»Ý´½ÃÙ ¶Ì¢ÆÁ²º³£  PTP    100P00001000000681000000681000007502701  AP2601       
E200000110000092411072248                                                                                                       
