S20902020014 05262978170143241029110237128128          0526297817                                                               
D202202410290623681   0114987901007405¿×ÅÂ¸½0.8MG¼ÞÖ³      0.8MG PTP      500T00002000003830000007660000043002509  HE2244       
D202202410290623682   0114987060008862Å¿ÞÈÂ¸½ÃÝËÞ´·50UG      56ÌÝÑÖ³   10GX5ÎÝ00001000003768000003768000042822604  R008N        
D202202410290623683   0114987650688108¼ÑËÞº-ÄÀ-ËÞÕÍ²×-60·Õ  60·Õ³ÆÕ³       1ÎÝ00001000002545000002545000028602508  YBFZ         
D202202410290623684   0114987901118606Î¸ÅØÝÃ-Ìß0.5MG           0.5MG    1Ï²X7000001000001479000001479000015122502  51701YQ1     
D202202410290623684   0214987901118606Î¸ÅØÝÃ-Ìß0.5MG           0.5MG    1Ï²X7000001000001479000001479000015122502  51701YQ1     
E200000070000052410291102                                                                                                       
