S20902020014 05262978172740240918050248128128          0526297817                                                               
D201202409180234675   0114987155152074´ÙÃÞ¶Ù¼Ä-Ù¶Ìß¾Ù0.75U0.75UG PTP    100CAP00001000001798000001798000020702609  D0596        
D201202409180234675   0214987443384446´ÝÚ½Ä¼ÞÖ³200MG       200MG PTP      100T00001000015108000015108000171102701  P0511        
D201202409180234675   0314987138801746ÂÑ×017ºÞÚ²»Ý              (17) 2.5GX3X1400001000001298000001298000014282707  X14651       
D201202409180234675   0414987138801746ÂÑ×017ºÞÚ²»Ý              (17) 2.5GX3X1400001000001298000001298000014282707  X14791       
D201202409180234675   0514987047211247ÃÙÈØÝ¼ÞÖ³1MG           1MG PTP      100T00001000000816000000816000009002612  243B31S      
D201202409180234676   0114987080103516ÄÞÝÍßØÄÞÝ¼ÞÖ³10MG¢»Ü  10MG PTP      100T00001000000530000000530000005902704  524205       
D201202409180234676   0214987306014565ÎÞÝËÞÊÞ¼ÞÖ³100MG     100MG PTP        3T00001000004372000004372000051442607  013M1        
D201202409180234960   0114987173015818±½ÞÉ-Ù³¶Þ²´·4%              4%  5MLX10ÎÝ00001000001183000001183000013452706  04017        
D201202409180234960   0214987081185740Ì´ÌÞ·¿½ÀÂÄ¼ÞÖ³20MG¢D  20MG PTP      100T00001000000953000000953000010702610  20152        
E200000110000092409180502                                                                                                       
S20902960013 05262978170000240918060021128128          0526297817                                                               
D2012024091815542167351014987376056212ÄºÌ´Û-ÙÆºÁÝ»Ý 200MG H100P               0000100000068100000068100000750270131AP2601       
D2012024091815543776941014987058172384±ÙÌ±¶Ù¼ÄÞ-Ù0.5UG±ÒÙH100T                00001000000536000000536000005902704302417         
E200000040000022409180600                                                                                                       
