S20902020014 05262978172555241127050233128128          0526297817                                                               
D201202411270676636   0114987306066625ËÞµÌ´ÙÐÝÊ²ºÞ³»Ý                   1GX12000001000000650000000650000007562707  164X1        
D201202411270676636   0214987616003631ÍßÝÆ-ÄÞÙ Ìß×½ 32G      32G 4MM    14ÎÝX500001000001081000001081000000002906  PS7G12B-1    
D201202411270676637   0114987616003211×²¿ÞÃÞ¸ÞÊ²ºÞ³ÁÕ³ÌÚÂ¸      300U   3MLX2ÎÝ00001000003173000003173000035622607  PP5L642      
D201202411270677372   0114987086533546¹ÄÌßÛÌ´ÝÃ-Ìß40MG¢»ÝÜ   10X14CM    7Ï²X1000001000001045000001045000011972605  4K16SL       
D201202411270677372   0214987185809917¼ÞÔÇËÞ±¼ÞÖ³50MG       (¶Â¾Ý²Ø) PTP  140T00001000013409000013409000156102603  Y012890      
D201202411270677372   0314987901130509ÌßÚ¶ÞÊÞØÝOD¼ÞÖ³75MG¢  75MG PTP      100T00001000001839000001839000020902612  LA6110       
D201202411270677372   0414987616003631ÍßÝÆ-ÄÞÙ Ìß×½ 32G      32G 4MM    14ÎÝX500005000001081000005405000000002906  PS7G12B-1    
D201202411270677373   0114987616003211×²¿ÞÃÞ¸ÞÊ²ºÞ³ÁÕ³ÌÚÂ¸      300U   3MLX2ÎÝ00002000003173000006346000035622607  PP5L642      
D201202411270677610   0114987443384446´ÝÚ½Ä¼ÞÖ³200MG       200MG PTP      100T00001000015108000015108000171102704  P0570        
D201202411270677610   0214987155592016Û»ÙÀÝK¼ÞÖ³50MG¢Ä-Ü£   50MG PTP      100T00001000001844000001844000021202901  A0196        
E200000120000102411270502                                                                                                       
S20901660013 05262978170000241126224738128128          0526297817                                                               
D2012024112733531     0114987616002467ÉÎÞ×ËßÂÄÞ ÁÕ³ ÌÚÂ¸½Í    300ÀÝ² (3ML)X2ÎÝ00002000002675000005350000029222601  PT6DS42      
D2012024112733531     0214987616003211×²¿ÞÃÞ¸Þ Ê²ºÞ³ÁÕ³ ÌÚ     300ÀÝ² 3MLX2·ÂÄ00004000003271000013084000035622605  PP5L142      
D2012024112733531     0314987123157520¶ÝÃÞ»ÙÀÝ ¼ÞÖ³ 4MG ¢±  PTP    4MG    100T00001000001430000001430000016802706  Y766A        
D2012024112733531     0414987443384446´ÝÚ½Ä ¼ÞÖ³ 200MG      PTP  200MG    100T00001000015243000015243000171102704  P0569        
D2012024112733531     0514987116530217´¸± ¼ÞÖ³ 50MG         PTP   50MG    100T00001000005399000005399000060602612  P1756        
D2012024112733531     0614987190020338´¿ÒÌß×¿Þ-Ù ¶Ìß¾Ù 20M  PTP   20MG    100P00001000003725000003725000041802607  10930        
D2012024112733531     0714987123416603ÎÞ¸ÞØÎÞ-½ OD¼ÞÖ³ 0.2£ PTP  0.2MG    100T00001000000851000000851000010102705  KF011        
D2012024112733531     0814987233102878½-¸Þ× ¼ÞÖ³ 50MG       PTP   50MG    100T00001000015182000015182000170402703  24036Y1      
D2012024112733532     0114987081185719Ì´ÌÞ·¿½ÀÂÄ ¼ÞÖ³ 10MG  PTP   10MG    100T00001000000536000000536000005902702  50227        
D2012024112733532     0214987138804341043 ÂÑ× ØÂ¸Ý¼Ä³                2.5GX42Î³00001000001718000001718000018902710  X33342       
D2012024112733532     0314987116530132´¸ÒÂÄ Ê²ºÞ³¼ÞÖ³ LD    PTP           100T00001000004544000004544000051002703  P0494        
D2012024112733532     0414987376069519±ÄÙÊÞ½ÀÁÝ ¼ÞÖ³ 10MG   PTP   10MG    100T00001000000999000000999000011002608  HK0101       
D2012024112733532     0514987080320111´½¿ÞËß¸ÛÝ ¼ÞÖ³ 2MG ¢  PTP    2MG    100T00001000001284000001284000014402612  623Z02       
D2012024112733532     0614987616003631ÍßÝÆ-ÄÞÙ Ìß×½ 32G     4MM         14ÎÝX500002000001201000002402000000002905  PS7F12B-1    
D2012024112733532     0714987616003631ÍßÝÆ-ÄÞÙ Ìß×½ 32G     4MM         14ÎÝX500003000001201000003603000000002905  PS7F12B-1    
D2012024112733533     0114987128320011ÌÞÛÁ¿Þ×Ñ ¼ÞÖ³ 0.25MG  PTP 0.25MG    100T00001000000900000000900000010102704  J797         
E200000180000162411262247                                                                                                       
