S20902020014 05262978170134241226100249128128          0526297817                                                               
D201202412260734728   0114987080267461µ¾ÙÀÐËÞÙ¶Ìß¾Ù75MG¢»Ü  75MG PTP     10CAP00020000001014000020280000011162512  119Y11A      
E200000030000012412261002                                                                                                       
S20902020014 05262978170157241226110247128128          0526297817                                                               
D201202412260734958   0114987155165265¾Ì¶ÍßÝËßÎÞ·¼Ù´Ý»Ý´Ý¼ 100MG PTP      500T00001000012444000012444000137002706  A00250       
E200000030000012412261102                                                                                                       
