S20902020014 05262978170835240905140251128128          0526297817                                                               
D201202409050208553   0114987614415511±ÑÊÞÛÊ²ºÞ³¼ÞÖ³¢»ÝÄÞ£       PTP      500T00003000006828000020484000084502609  P0287A       
D201202409050208559   0114987614413012ÊÞÙ»ÙÀÝ¼ÞÖ³80MG¢»ÝÄÞ  80MG PTP      500T00001000005956000005956000067002609  P0210        
D201202409050208559   0214987614413012ÊÞÙ»ÙÀÝ¼ÞÖ³80MG¢»ÝÄÞ  80MG PTP      500T00001000005956000005956000067002701  P0230        
D201202409050208560   0114987614413005ÊÞÙ»ÙÀÝ¼ÞÖ³80MG¢»ÝÄÞ  80MG PTP      140T00002000001668000003336000018762701  P0241        
D201202409050208570   0114987614412909ÊÞÙ»ÙÀÝ¼ÞÖ³40MG¢»ÝÄÞ  40MG PTP      140T00001000001257000001257000014142703  P0076        
D201202409050208577   0114987614413104ÊÞÙ»ÙÀÝ¼ÞÖ³160MG¢»ÝÄ 160MG PTP      100T00001000001689000001689000019002703  P0047        
D201202409050208579   0114987614415528±ÑÊÞÛÊ²ºÞ³¼ÞÖ³¢»ÝÄÞ£       PTP      700T00001000009560000009560000118302609  P0294        
D201202409050208719   0114987413580717ÚÝÄÞÙÐÝ¼ÞÖ³0.25MG   0.25MG PTP      100T00001000001038000001038000012502603  489006       
D201202409050208720   0114987116530170´¸ÒÂÄÊ²ºÞ³¼ÞÖ³HD           PTP      100T00001000004472000004472000050202701  P2285        
D201202409050208720   0214987086151238¶ÙÅ¸ØÝ¼ÞÖ³50           50U PTP      100T00002000001208000002416000013502611  FY06201      
D201202409050208720   0314987086170802¸ÞØÒËßØÄÞ¼ÞÖ³1MG¢»ÝÜ   1MG PTP      100T00001000000848000000848000010102612  FY02601      
D201202409050208720   0414987086533546¹ÄÌßÛÌ´ÝÃ-Ìß40MG¢»ÝÜ   10X14CM    7Ï²X1000001000001045000001045000011972601  4B15SL       
D201202409050208720   0514987770588807ºÒØ±Ýº-Ü¼ÞÖ³100      100MG PTP      100T00002000000800000001600000008902802  VH4A         
D201202409050208721   0114987770529800ÊßÙÓÃÞ²±XR¼ÞÖ³0.2MG  0.2MG PTP      100T00001000005345000005345000060002704  DX4C         
D201202409050208721   0214987080774013Ìß×ÊÞ½ÀÁÝNA¼ÞÖ³10MG¢  10MG PTP      100T00001000001340000001340000015402611  723Y05       
D201202409050208721   0314987116530323ÒÄÎÙÐÝ´Ý»Ý´Ý¼ÞÖ³250M 250MG PTP     1000T00001000008575000008575000101002702  6607C        
D201202409050208721   0414987116530316ÒÄÎÙÐÝ´Ý»Ý´Ý¼ÞÖ³250M 250MG PTP      100T00001000000808000000808000010102701  6585C        
D201202409050208721   0514987087003871ØÝÃÞÛÝ-VG¸Ø-Ñ0.12%       0.12%   5GX10²Ø00001000001230000001230000013852705  5824         
D201202409050208722   0114987035209713ÚÊÞÐËßÄÞ¼ÞÖ³100MG¢µ- 100MG PTP      500T00001000004040000004040000050502703  4C90RT1      
D201202409050208722   0214987081101092Û·¿ÆÝÃ-Ìß100MG         10X14CM    7Ï²X5000001000005423000005423000064402705  G114L        
D201202409050208722   0314987086471282Û·¿ÌßÛÌ´ÝNA¼ÞÖ³60MG¢  60MG PTP      100T00002000000863000001726000009802702  KY13702      
D201202409050208722   0414987081186907Û½ÊÞ½ÀÁÝ¼ÞÖ³2.5MG¢DS 2.5MG PTP      100T00001000001015000001015000011402610  79830        
D201202409050208723   0114987616003655µ¾ÞÝËßÂ¸Ë¶ÁÕ³2MG           2MG 1.5MLX1ÎÝ00001000009672000009672000108792608  NP5K133      
D201202409050208758   0114987081184477±ÏÙ´ÂÄÊ²ºÞ³¼ÞÖ³3ÊÞÝ¢       PTP      100T00001000001491000001491000016702602  Q3A0129      
D201202409050208769   0114987080037644¹ÄÁÌ´ÝDS¼Ö³ÆÖ³0.1%¢»  0.1% ÊÞ×      100G00001000000590000000590000006502610  123X02       
D201202409050208802   0114987080303718¼Þ×¾ÞÌß´Ý»Ý´Ý¼ÞÖ³50M  50MG PTP      100T00001000000510000000510000005702612  723Z02       
D201202409050208802   0214987616003631ÍßÝÆ-ÄÞÙ Ìß×½ 32G      32G 4MM    14ÎÝX500002000001081000002162000000002903  PS7D13B-1    
D201202409050208803   0114987616003211×²¿ÞÃÞ¸ÞÊ²ºÞ³ÁÕ³ÌÚÂ¸      300U   3MLX2ÎÝ00003000003173000009519000035622604  PP5K817      
D201202409050208879   0114987185809917¼ÞÔÇËÞ±¼ÞÖ³50MG       (¶Â¾Ý²Ø) PTP  140T00001000014115000014115000156102511  Y005480      
D201202409050208879   0214987080394013ÍÞ»ÞÌ²ÌÞ×-ÄSR¼ÞÖ³200 200MG PTP      100T00001000000869000000869000010102702  724209       
E200000320000302409051402                                                                                                       
S20902020014 05262978172854240906050234128128          0526297817                                                               
D201202409060209369   0114987080100119¸´Ý»ÝÀÞ²²ÁÃÂNA¼ÞÖ³50  50MG PTP      100T00002000000563000001126000006202705  724506       
D201202409060209369   0214987080152118ÚÊß¸ÞØÆÄÞ¼ÞÖ³0.25MG¢0.25MG PTP      100T00002000000726000001452000008002706  524302       
D201202409060209369   0314987188415832Û·¿ÌßÛÌ´ÝNAÃ-Ìß100MG     100MG    7Ï²X1000002000001071000002142000011972605  B606Y        
D201202409060209369   0414987443277229ÃÞ²µÊÞÝ¼ÞÖ³80MG       80MG PTP      140T00006000003269000019614000039062703  P4278        
D201202409060209678   0114987020021344±Ù¸ÛÒÀ¿ÞÝÌßÛËßµÝ»Ý´½      0.1%     5GX1000001000001286000001286000014152704  45047        
D201202409060210274   0114987770504609±ÃÞÎ½º-ÜÁÖ³Ö³¼ÞÖ³20   20MG PTP      100T00001000000493000000493000005702701  HY4W         
D201202409060210274   0214987901129800ÄÞ·»¿Þ¼Ý¼ÞÖ³1MG¢VTRS   1MG PTP      100T00001000000859000000859000010102609  HN5918       
E200000090000072409060502                                                                                                       
S20902960013 05262978170000240906060021128128          0526297817                                                               
D2012024090615510319441014987376055710±ÑÛ¼ÞËßÝ5MG¢ÆÁ²º³£ H 100T               0000100000091800000091800001010260331I00300       
D2012024090615510319442014987123418164ÃÞÕÀ½ÃØÄÞ0.5MGAV H 30P                  0000100000078000000078000000876280229S65R         
D2012024090615510319443014987376075411ËÞ¿ÌßÛÛ-ÙÌÏÙ»Ý´Ý5MG H100T               0000100000091800000091800001010270228J00300       
D2012024090615510319444014987123002974ÒÁÙ¼ÞºÞ·¼Ý0.1MG¢NIG£H100T               0000100000053600000053600000590250930G20585       
D2012024090615510366461014987123003452±¼ÞÙ»ÙÀÝ20MGÀ¹ÀÞÃÊÞH100T                0000100000285900000285900003210261130556541       
D2012024090615510366462014987123154352À¹·ÔÌÞ10MG H 100T                       0000100000853600000853600009680270131558880       
D2012024090615510962571014987376056212ÄºÌ´Û-ÙÆºÁÝ»Ý 200MG H100P               0000100000068100000068100000750261231LK1401       
D2012024090615511615491014987246767040ÚÙÍÞ±200´ØÌßÀ30·Õ³ÆÕ³Ö³                 0000100000486700000486700005403260131NE6T         
E200000100000082409060600                                                                                                       
