S20901660013 05262978170000241223100127128128          0526297817                                                               
D2012024122333084     0114987123154352À¹·ÔÌÞ ¼ÞÖ³ 10MG      PTP   10MG    100T00001000008536000008536000096802706  561601       
D2012024122333084     0214987123001175¼ÞÙÑÛ Ê²ºÞ³¼ÞÖ³ HD ¢  PTP           100T00001000002614000002614000031302702  559962       
D2012024122333084     0314987376556712Ì´·¿Ì´Å¼ÞÝ´Ý»Ý´Ý ¼ÞÖIK£  PTP 60MG   100T00001000002558000002558000028702702  4K019A       
D2012024122333084     0414987123416627ÎÞ¸ÞØÎÞ-½ OD¼ÞÖ³ 0.3£ PTP  0.3MG    100T00001000000851000000851000010102706  KG061        
D2012024122333084     0514987123416627ÎÞ¸ÞØÎÞ-½ OD¼ÞÖ³ 0.3£ PTP  0.3MG    100T00001000000851000000851000010102706  KG061        
D2012024122333084     0614987123407915Ì±ÓÁ¼ÞÝ OD ¼ÞÖ³ 20MG  PTP   20MG    100T00001000000900000000900000010102706  H10513       
D2012024122333084     0714987376097819¸ÛËßÄÞ¸ÞÚÙ ¼ÞÖ³ 75MG  PTP   75MG    100T00001000003140000003140000035502701  4K670A       
D2012024122333085     0114987058565032ÌÙÆÄ×¾ÞÊßÑ ¼ÞÖ³ 1MG   PTP    1MG    100T00001000000500000000500000005702706  2418         
E200000100000082412231001                                                                                                       
S20902690019 05262978170000241223100001128128          0526297817                                                               
D201202412239490901   0114987286105239¾È¶Þ¼ÛÂÌß ¹Ý´²              500ML       00003000000805000002415000008952806  4J18         
E200000030000012412231000                                                                                                       
