S20902020014 05262978170126241029100241128128          0526297817                                                               
D202202410290623593   0114987051136123¶Þ½ºÝ¼ÞÖ³40MG         40MG PTP      100T00001000000504000000504000005702605  CTR2802      
D202202410290623593   0214987103012900±ºÌ±²ÄÞ¼ÞÖ³100MG     100MG PTP      100T00001000002844000002844000032202803  D448         
D202202410290623593   0314987224003207±ÃÚÂ¸¼ÞÖ³10           10MG PTP      100T00001000002320000002320000027102611  K970         
D202202410290623593   0414987224003207±ÃÚÂ¸¼ÞÖ³10           10MG PTP      100T00002000002320000004640000027102611  K971         
E200000060000042410291002                                                                                                       
