S20902020014 05262978172804240910050249128128          0526297817                                                               
D201202409100217683   0114987173015818±½ÞÉ-Ù³¶Þ²´·4%              4%  5MLX10ÎÝ00001000001183000001183000013452706  04017        
D201202409100217683   0214987116530217´¸±¼ÞÖ³50MG           50MG PTP      100T00001000005130000005130000060602610  P1738        
D201202409100217683   0314987080034711¾ÝÉ¼ÄÞ¼ÞÖ³12MG¢»Ü²£   12MG PTP      100T00001000000460000000460000005102802  724202       
D201202409100217683   0414987497307217ÚÎÞÌÛ·»¼ÝÃÝ¶ÞÝ´·0.5%      0.5%     5MLX500001000000600000000600000006582702  240021       
D201202409100217684   0114987616003655µ¾ÞÝËßÂ¸Ë¶ÁÕ³2MG           2MG 1.5MLX1ÎÝ00001000009672000009672000108792608  NP5K133      
D201202409100217715   0114987035143819ÌßÚÀ-ÙOD¼ÞÖ³100MG    100MG PTP      100T00001000002993000002993000034402703  4C73PDA3     
E200000080000062409100502                                                                                                       
S20902960013 05262978170000240910060021128128          0526297817                                                               
D20120240910155196884210149871231391822MG ¾Ù¼Ý H 100T                         0000100000053200000053200000600290731KB021        
D2012024091015520192861014987123871051´ÍßØ¿ÞÝ50MG¢NIG£H100T                   0000100000053600000053600000590260630GJ0461       
E200000040000022409100600                                                                                                       
