S20902020014 05262978170869250709140248128128          0526297817                                                               
D201202507090306739   0114987443384446´ÝÚ½Ä¼ÞÖ³200MG       200MG PTP      100T00001000017109000017109000188202711  P0780        
D201202507090306739   0214987138804846ÂÑ×048¼ÞÕ³¾ÞÝÀ²ÎÄ³        (48) 2.5GX3X1400001000001756000001756000019322805  Y15982       
D201202507090306739   0314987081185740Ì´ÌÞ·¿½ÀÂÄ¼ÞÖ³20MG¢D  20MG PTP      100T00001000000945000000945000010402709  20214        
D201202507090306739   0414987233103042ÍÞÀÆ½¼ÞÖ³50MG         50MG PTP      100T00001000012882000012882000141702711  24117R1      
D201202507090306739   0514987443328846ÎÞÙÀÚÝSR¶Ìß¾Ù37.5MG 37.5MG PTP    100CAP00001000000691000000691000007602712  250080       
D201202507090306740   0114987128107285Ï²»Þ-ÅÝº³0.05%           0.05%     5GX1000001000000505000000505000005552801  K016         
E200000080000062507091402                                                                                                       
