S20902690019 05262978170000250314110001128128          0526297817                                                               
D201202503143423978   011498712312712725MG±ØÅÐÝFÄ³²¼ÞÖ³PTP  25MG 10TX10       00001000000525000000525000005902911  KF021        
D201202503143423978   0214987123416627ÎÞ¸ÞØÎÞ°½OD¼ÞÖ³0.3MG¢À¹ÀÞÃÊÞ£100T       00001000000872000000872000010102707  KH071        
D202202503143424443   0114987476119862ÃÌßÚÉÝ¶Ìß¾Ù50mg¢YD£ PTP    1000CP       00002000005727000011454000063002707  Y24H08       
D202202503143424443   0214987080267461µ¾ÙÀÐËÞÙ¶Ìß¾Ù75MG¢»Ü²£ PTP   10CP       00006000001014000006084000011163003  124809       
D202202503143424443   0314987080267461µ¾ÙÀÐËÞÙ¶Ìß¾Ù75MG¢»Ü²£ PTP   10CP       00002000001014000002028000011163003  124809       
D202202503143424443   0414987080267461µ¾ÙÀÐËÞÙ¶Ìß¾Ù75MG¢»Ü²£ PTP   10CP       00001000001014000001014000011163003  124809       
D201202503143424705   0114987123415781Ì´ÉÌ²ÌÞ×°Ä¼ÞÖ³53.3mg¢À¹ÀÞÃÊÞ£100T       00001000000705000000705000008502707  H40245       
D201202503143424705   0214987123161909ÒÙ¶¿Þ°Ù¼ÞÖ³2.5MG PTP 2.5MG   100T       00001000000869000000869000009802704  Y027A        
E200000100000082503141100                                                                                                       
