S20902690019 05262978170000251003180002128128          0526297817                                                               
D201202510064802770   0114987123154352¿π∑‘Ãﬁºﬁ÷≥10MG PTP    10MG 10TX10       00001000008270000008270000094302804  570093       
E200000030000012510031800                                                                                                       
S20902690019 05262978170000251003190005128128          0526297817                                                               
D201202510064807799   0114987288447139ª›∂œ∏ﬁ»º≥—ºﬁ÷≥500MG¢÷º¿ﬁ£PTP 100T       00001000000493000000493000005902712  125109       
E200000030000012510031900                                                                                                       
