S20902020014 05262978172900250409050244128128          0526297817                                                               
D201202504090156752   0114987080030416³Ù¿ÃÞµ·¼º-Ù»Ý¼ÞÖ³100 100MG PTP      100T00002000000945000001890000010402711  B24X18       
D201202504090156752   0214987614410608ÄÞÈÍß¼ÞÙ´Ý»Ý´ÝOD¼ÞÖ³   5MG PTP       56T00001000001353000001353000013162609  P0044        
D201202504090156752   0314987190510808ÍÞÎßÀ½ÁÝÍÞ¼Ù»Ý´ÝOD¼Þ  10MG PTP      100T00002000000973000001946000010702705  J415         
E200000050000032504090502                                                                                                       
S20901660013 05262978170000250408225948128128          0526297817                                                               
D2012025040916466     0114987123410533»×»ÞÂ¸ Ê²ºÞ³¶ØÕ³                  1GX12000001000000709000000709000007802707  H11181       
E200000030000012504082259                                                                                                       
