S20902690019 05262978170000250217190003128128          0526297817                                                               
D201202502182134209   0114987058566039ÃŸ∆ƒ◊æﬁ ﬂ—ºﬁ÷≥2MG±“ŸPTP2MG   100T       00001000000536000000536000005902708  2419         
D201202502182135545   0114987123154352¿π∑‘Ãﬁºﬁ÷≥10MG PTP    10MG 10TX10       00001000008470000008470000096802707  563144       
E200000040000022502171900                                                                                                       
S20902020014 05262978172963250218050246128128          0526297817                                                               
D201202502180820325   0114534551012169œ-Àﬁ- –Ωﬁ÷≥∂›        HABA 1216       57G00002000000120000000240000000002505284L28         
D201202502180820497   0114987087034868SG ≤∫ﬁ≥∂ÿ’≥                     1GX105Œ≥00001000000767000000767000008612708  9822         
D201202502180820728   0114987087006643ÿ›√ﬁ€›A≈›∫≥∂ﬁ›•ºﬁ∂÷≥      0.1%   5GX10≤ÿ00001000003015000003015000033852710  5751         
D201202502180820848   0114987170020419√ﬁ∑ª“¿øﬁ›∫≥∏≥÷≥≈›∫≥0      0.1%   5GX10Œ›00001000001808000001808000019502806  747470       
D201202502180820893   0114987058146828Õﬁÿ¡-— ≤∫ﬁ≥∂ÿ’≥                 1GX105Œ≥00003000002065000006195000022052709  2446         
D201202502180821161   0114987116530170¥∏“¬ƒ ≤∫ﬁ≥ºﬁ÷≥HD           PTP      100T00001000004248000004248000050202708  P2455        
E200000080000062502180502                                                                                                       
