S20902020014 05262978173472250714050246128128          0526297817                                                               
D201202507140316558   0114987328145711ÍÓÎßØ¿ÞÝÅÝº³                       2GX2800004000001039000004156000011422802  J0715        
D201202507140316982   0114987116530132´¸ÒÂÄÊ²ºÞ³¼ÞÖ³LD           PTP      100T00001000004291000004291000047202712  P0524        
D201202507140316982   0214987306066212ËÞµÌ´ÙÐÝ¼ÞÖ³»Þ²            PTP      630T00001000003379000003379000037172806  135P1        
D201202507140316982   0314987155165241ËÞÙÀÞ¸ÞØÌßÁÝ¼ÞÖ³50MG  50MG PTP      100T00001000001673000001673000018402710  D0019        
D201202507140316982   0414987080002017ËßÀÊÞ½ÀÁÝCA¼ÞÖ³2MG¢»   2MG PTP      100T00001000001445000001445000015902710  424X04       
D201202507140316982   0514987035209713ÚÊÞÐËßÄÞ¼ÞÖ³100MG¢µ- 100MG PTP      500T00001000004727000004727000052002803  5C95RT1      
D201202507140316983   0114987081189939Û·¿ÌßÛÌ´ÝNAÃ-Ìß50MG¢      50MG    7Ï²X1000001000000808000000808000008892804  50125        
D201202507140316983   0214987081189960Û·¿ÌßÛÌ´ÝNAÃ-Ìß100MG     100MG    7Ï²X1000003000001120000003360000012322802  31225        
D201202507140316983   0314987155592016Û»ÙÀÝK¼ÞÖ³50MG¢Ä-Ü£   50MG PTP      100T00001000001755000001755000019302911  A0214        
D201202507140316984   0114987616005062µ¾ÞÝËßÂ¸Ë¶ÁÕ³2MG           2MG 1.5MLX2ÎÝ00001000020252000020252000223022705  PP5M864      
D201202507140317613   0114987476170306±ÑÊÞÛÊ²ºÞ³¼ÞÖ³¢YD£         PTP      100T00010000001551000015510000015202801  Y25B03       
E200000130000112507140502                                                                                                       
S20901660013 05262978170000250712185758128128          0526297817                                                               
D2012025071429722     0114987376056212ÄºÌ´Û-ÙÆºÁÝ»Ý´½ÃÙ ¶Ì¢ÆÁ²º³£  PTP    100P00001000000681000000681000007502711  KP1501       
D2012025071429722     021498712312712725MG ±ØÅÐÝ F Ä³²¼ÞÖ³  PTP   25MG    100T00002000000544000001088000006103001  KH031        
E200000040000022507121857                                                                                                       
