S20902020014 05262978173465250728050238128128          0526297817                                                               
D201202507280342023   0114987155152074´ÙÃÞ¶Ù¼Ä-Ù¶Ìß¾Ù0.75U0.75UG PTP    100CAP00001000001755000001755000019302802  D0855        
D201202507280342023   0214987155067132ÍÞÝ½ÞÌÞÛÏÛÝ¼ÞÖ³50MG¢  50MG PTP      100T00001000000555000000555000006102910  A0337        
D201202507280342023   0314987616003631ÍßÝÆ-ÄÞÙ Ìß×½ 32G      32G 4MM    14ÎÝX500004000001081000004324000000003002  RS7C02B-1    
D201202507280342023   0414987155592016Û»ÙÀÝK¼ÞÖ³50MG¢Ä-Ü£   50MG PTP      100T00001000001755000001755000019302911  A0214        
D201202507280342024   0114987616005062µ¾ÞÝËßÂ¸Ë¶ÁÕ³2MG           2MG 1.5MLX2ÎÝ00001000020252000020252000223022705  PP5M893      
D201202507280342024   0214987616003167ÄÚ¼-ÊÞÁÕ³ÌÚÂ¸½ÀÂÁ         300U     3MLX200002000003347000006694000036822612  RP5P642      
D201202507280342024   0314987616002467ÉÎÞ×ËßÂÄÞÁÕ³ÌÚÂ¸½ÍßÝ      300U     3MLX200003000002351000007053000025862610  RT6GK98      
D201202507280342024   0414987616003211×²¿ÞÃÞ¸ÞÊ²ºÞ³ÁÕ³ÌÚÂ¸      300U   3MLX2ÎÝ00002000003036000006072000033402701  PP5N832      
E200000100000082507280502                                                                                                       
