S20902690019 05262978170000250312110001128128          0526297817                                                               
D202202503123253121   0114987316130033 ﬂΩ¿€›∏ÿ∞—20%          20% 25GX10       00001000000990000000990000011002704  CWXN         
D202202503123253984   0114987476111514“≈√ƒ⁄…› ∂ÃﬂæŸ15MG¢YD£ PTP   100CP       00004000001036000004144000011402709  Y24P03       
D202202503123253984   0214987497301550Õ ﬂÿ›Ÿ≤ºﬁÃﬁº¬€∞º÷›  0.3%   50GX10       00002000002293000004586000025502703  240121       
E200000050000032503121100                                                                                                       
