S20902020014 05262978170108250107100251128128          0526297817                                                               
D202202501070746126   0114987081415908ÒÊÞÛÁÝ¼ÞÖ³10          10MG PTP      100T00001000001909000001909000022602610  DYA2430      
D202202501070746126   0214987136118983´ÃÞ²Û-Ù¶Ìß¾Ù0.75UG  0.75UG PTP    100CAP00001000003999000003999000046502702  24C630Z      
D202202501070746126   0314987188415801Û·¿ÌßÛÌ´ÝNAÃ-Ìß50MG¢      50MG    7Ï²X1000001000000770000000770000008612607  B807Y        
D202202501070746128   0114987128122592ÍÙÍÞÂ»-R¶Ìß¾Ù100MG   100MG PTP    100CAP00001000001610000001610000018102701  J009A        
D202202501070746129   0114987235012519Û·¿ÌßÛÌ´ÝNAÃ-Ìß50MG¢      50MG    7Ï²X1000001000000770000000770000008612608  4K020        
D202202501070746130   0114987288861010Ê¸¼Ö¸Ü¾ØÝ¢Ö¼ÀÞ£                      50G00004000000310000001240000001222704  524101       
E200000080000062501071002                                                                                                       
