S20902020014 05262978172803250625050240128128          0526297817                                                               
D201202506250280354   0114987080033516ÛÌ×¾ÞÌß»Ý´ÁÙ¼ÞÖ³1MG¢   1MG PTP      100T00001000000555000000555000006102801  525101       
D201202506250280355   0114987060008411ÃÞ»ÞÚÂ¸½¼ÞÖ³5MG        5MG PTP      100T00001000003518000003518000038702608  Y020251      
D201202506250280355   0214987233103042ÍÞÀÆ½¼ÞÖ³50MG         50MG PTP      100T00001000012882000012882000141702711  24112R1      
D201202506250280355   0314987116530323ÒÄÎÙÐÝ´Ý»Ý´Ý¼ÞÖ³250M 250MG PTP     1000T00001000009455000009455000104002707  77U02        
D201202506250280355   0414987116530316ÒÄÎÙÐÝ´Ý»Ý´Ý¼ÞÖ³250M 250MG PTP      100T00001000000945000000945000010402707  6863C        
E200000070000052506250502                                                                                                       
