S20902020014 05262978170021250124170249128128          0526297817                                                               
D201202501240778719   0114987081189960Û·¿ÌßÛÌ´ÝNAÃ-Ìß100MG     100MG    7Ï²X1000005000001066000005330000011972707  80224        
D201202501240778719   0214987376556712Ì´·¿Ì´Å¼ÞÝ´Ý»Ý´Ý¼ÞÖ³  60MG PTP      100T00005000002970000014850000028702612  4K003A       
E200000040000022501241702                                                                                                       
