S20902690019 05262978170000250806190003128128          0526297817                                                               
D201202508071648424   0114987123873758¼ÞÌ´ÆÄÞ°Ù´Ý»Ý´Ý¼ÞÖ³25MG PTP  100T       00001000000536000000536000005902802  HA0303       
E200000030000012508061900                                                                                                       
S20902020014 05262978172832250807050231128128          0526297817                                                               
D201202508070376385   0114987080100119¸´Ý»ÝÀÞ²²ÁÃÂNA¼ÞÖ³50  50MG PTP      100T00001000000562000000562000006202804  725320       
D201202508070376385   0214987086533546¹ÄÌßÛÌ´ÝÃ-Ìß40MG¢»ÝÜ   10X14CM    7Ï²X1000005000001109000005545000012322705  5K12SL       
D201202508070376866   0114987925113625Ú½ÌßÚÝ¼ÞÖ³30MG        30MG PTP      500T00002000004640000009280000045503001  25A170G      
D201202508070377042   0114987770528803±ÃÞÎ½º-Ü¶ØÕ³10%            10%  1GX600Î³00001000008324000008324000093002804  VI5C         
D201202508070377042   0214987901128605±ÑÛ¼ÞËßÝ¼ÞÖ³5MG¢VTRS   5MG PTP      100T00001000000883000000883000010402809  LY1378       
D201202508070377042   0314987286105239¾È¶Þ¼ÛÂÌß                          500ML00001000000797000000797000008952903  5G07         
D201202508070377042   0414987080002017ËßÀÊÞ½ÀÁÝCA¼ÞÖ³2MG¢»   2MG PTP      100T00001000001321000001321000015902710  424X06       
D201202508070377042   0514987616003631ÍßÝÆ-ÄÞÙ Ìß×½ 32G      32G 4MM    14ÎÝX500002000001081000002162000000003002  RS7C14B-1    
D201202508070377043   0114987081189960Û·¿ÌßÛÌ´ÝNAÃ-Ìß100MG     100MG    7Ï²X1000001000001057000001057000012322802  31425        
D201202508070377044   0114987616005062µ¾ÞÝËßÂ¸Ë¶ÁÕ³2MG           2MG 1.5MLX2ÎÝ00001000019929000019929000223022705  PP5M893      
D201202508070377044   0214987616003211×²¿ÞÃÞ¸ÞÊ²ºÞ³ÁÕ³ÌÚÂ¸      300U   3MLX2ÎÝ00002000002989000005978000033402701  PP5N832      
E200000130000112508070502                                                                                                       
S20902960013 05262978170000250807060020128128          0526297817                                                               
D2012025080716547271871014987274129759ÊßÝÄ¼Ý 200 H 100T                       0000100000098100000098100001080270930DWA0904      
E200000030000012508070600                                                                                                       
S20901660013 05262978170000250806220743128128          0526297817                                                               
D2012025080723522     0114987770529800ÊßÙÓÃÞ²± XR ¼ÞÖ³ 0.2  PTP  0.2MG    100T00001000005346000005346000060002804  JO5H         
E200000030000012508062207                                                                                                       
