S20902690019 05262978170000250728190003128128          0526297817                                                               
D201202507291258975   0114987123416627ÎÞ¸ÞØÎÞ°½OD¼ÞÖ³0.3MG¢À¹ÀÞÃÊÞ£100T       00001000000942000000942000010402710  KL011        
E200000030000012507281900                                                                                                       
S20902020014 05262978172940250729050239128128          0526297817                                                               
D201202507290343904   0114987080557418±ÝÌÞÛ·¿-Ù´Ý»Ý´ÝL¶Ìß¾  45MG PTP    100CAP00001000001464000001464000016102711  X24Z02       
D201202507290344470   0114987116530170´¸ÒÂÄÊ²ºÞ³¼ÞÖ³HD           PTP      100T00001000004227000004227000046502801  P2569        
D201202507290344470   0214987185809900¼ÞÔÇËÞ±¼ÞÖ³50MG       (¶Â¾Ý²Ø) PTP  100T00001000007464000007464000082102611  Z006651      
D201202507290344470   0314987155593020Û»ÙÀÝK¼ÞÖ³100MG¢Ä-Ü£ 100MG PTP      100T00001000002591000002591000028502904  A0089        
D201202507290344470   0414987081186907Û½ÊÞ½ÀÁÝ¼ÞÖ³2.5MG¢DS 2.5MG PTP      100T00001000000945000000945000010402706  89740        
D201202507290344868   0114987699050027¸Þ-Ì²½¼ÞÖ³5MG          5MG PTP      100T00001000007291000007291000080202802  5C430        
D201202507290344868   0214987081107032Ø¸¼±ÅOD¼ÞÖ³30MG       30MG PTP      100T00001000037391000037391000411302801  UMA0739      
E200000090000072507290502                                                                                                       
