S20902020014 05262978170084250116100247128128          0526297817                                                               
D201202501160763050   0114987155165265¾Ì¶ÍßÝËßÎÞ·¼Ù´Ý»Ý´Ý¼ 100MG PTP      500T00001000012444000012444000137002706  A00260       
E200000030000012501161002                                                                                                       
