S20902690019 05262978170000250327110001128128          0526297817                                                               
D201202503274590728   0114987243319600ÚÎÞ¶ÊÞ½ÁÝ´Ý»ÝÃÝ¶ÞÝ´·5ML      10²Ø       00001000002236000002236000024752712  4Z77         
D201202503274594022   0114987328145445ÈØ»ÞÅÝº³                    2GX14       00001000000616000000616000006772709  J0279        
E200000040000022503271100                                                                                                       
S20902020014 05262978170761250327140250128128          0526297817                                                               
D201202503270131138   0114987084316318´ËßÅ½ÁÝ´Ý»Ý´ÝLXÃÝ¶ÞÝ      0.1%  5MLX10ÎÝ00002000010870000021740000126452802  2EJ0036      
D201202503270131237   0114987138802347ÂÑ×023Ä³·¼Ô¸Ô¸»Ý          (23) 2.5GX3X1400002000001421000002842000015652712  X41162       
D201202503270131237   0214987138801647ÂÑ×016ÊÝ¹Þº³ÎÞ¸Ä³         (16) 2.5GX3X1400003000001393000004179000015332801  X47361       
D201202503270131237   0314987413870511Ä×¾ÞÝÀ¼ÞÖ³5MG          5MG PTP      100T00001000010522000010522000122002712  489329       
D201202503270131237   0414987770529800ÊßÙÓÃÞ²±XR¼ÞÖ³0.2MG  0.2MG PTP      100T00001000005345000005345000060002710  HF5K         
D201202503270131237   0514987060308023ÓÒÀ¿ÞÝÃÝËÞ´·50UG¢·Ö³               10GX500001000002044000002044000022962705  S538P        
D201202503270131238   0114987081189939Û·¿ÌßÛÌ´ÝNAÃ-Ìß50MG¢      50MG    7Ï²X1000001000000766000000766000008612712  10125        
D201202503270131238   0214987081189960Û·¿ÌßÛÌ´ÝNAÃ-Ìß100MG     100MG    7Ï²X1000001000001066000001066000011972712  10625        
D201202503270131413   0114987413721622µÌ´ÌÞ¶Ìß¾Ù150MG      150MG PTP     28CAP00002000148683000297366001670592701  489012       
D201202503270131504   0114987213030405´·»ÞÙÍÞ                            5GX1000001000001314000001314000014902610  FA1P6        
D201202503270131504   0214987080035510´Å×ÌßØÙÏÚ²Ý»Ý´Ý¼ÞÖ³5   5MG PTP      100T00001000000898000000898000010102708  524702       
D201202503270131504   0314987086533546¹ÄÌßÛÌ´ÝÃ-Ìß40MG¢»ÝÜ   10X14CM    7Ï²X1000001000001045000001045000011972612  5A13SL       
D201202503270131504   0414987233105343½-¼ÞÔÇÊ²ºÞ³¼ÞÖ³            PTP      100T00001000016382000016382000191702705  24068M1      
D201202503270131504   0514987306066984ËÞµÌ´ÙÐÝR¼ÞÖ³              PTP      100T00001000000513000000513000005902803  045Y1        
D201202503270131505   0114987306066212ËÞµÌ´ÙÐÝ¼ÞÖ³»Þ²            PTP      630T00001000003088000003088000035912801  404D1        
E200000170000152503271402                                                                                                       
S20902020014 05262978172334250328050330128128          0526297817                                                               
D201202503280132013   0114987080128014²ÄÌßØÄÞ´Ý»Ý´Ý¼ÞÖ³50M  50MG PTP      100T00001000000554000000554000006102710  424X04       
D201202503280133030   0114987199100550±ÏØ-Ù0.5MG¼ÞÖ³       0.5MG PTP      100T00001000000879000000879000010102609  4K284A       
D201202503280133031   0114987616003655µ¾ÞÝËßÂ¸Ë¶ÁÕ³2MG           2MG 1.5MLX1ÎÝ00006000009672000058032000108792703  PP5M682      
E200000050000032503280503                                                                                                       
S20902690019 05262978170000250328070003128128          0526297817                                                               
D201202503284622482   0114987123872997ÍÞÆ¼ÞËßÝ´Ý»Ý´Ý4MG¢N IG£PTP4MG100T       00001000000866000000866000010202610  GR0965       
E200000030000012503280700                                                                                                       
S20901660013 05262978170000250327220259128128          0526297817                                                               
D2012025032843298     0114987376305617ËßÙÌ´ÆÄÞÝ ¼ÞÖ³ 200MG  PTP  200MG    100T00001000013167000013167000154902709  J00700       
D2012025032843299     0114987376007337½ËßÛÉ×¸ÄÝ ¼ÞÖ³ 25MG   PTP   25MG   1000T00002000005078000010156000057002708  J04600       
D2012025032843736     0114987123155236ºÃÞ²ÝØÝ»Ý´Ý ¼ÞÖ³ 20M  PTP   20MG     50T00001000003613000003613000039752707  562257       
E200000050000032503272202                                                                                                       
