S20902020014 05262978173587250310050244128128          0526297817                                                               
D201202503100900391   0114987087034868SGÊ²ºÞ³¶ØÕ³                     1GX105Î³00002000000767000001534000008612708  9823         
D201202503100900896   0114987616003631ÍßÝÆ-ÄÞÙ Ìß×½ 32G      32G 4MM    14ÎÝX500002000001081000002162000000002909  PS7K16B-1    
D201202503100900897   0114987616003655µ¾ÞÝËßÂ¸Ë¶ÁÕ³2MG           2MG 1.5MLX1ÎÝ00001000009672000009672000108792703  PP5M196      
D201202503100900897   0214987616003211×²¿ÞÃÞ¸ÞÊ²ºÞ³ÁÕ³ÌÚÂ¸      300U   3MLX2ÎÝ00002000003173000006346000035622610  PP5M971      
D201202503100902088   0114987616003631ÍßÝÆ-ÄÞÙ Ìß×½ 32G      32G 4MM    14ÎÝX500002000001081000002162000000002909  PS7K16B-1    
D201202503100902088   0214987086651578ÐÁ¸ÞØÆÄÞCA¥OD¼ÞÖ³10M  10MG PTP      100T00001000000805000000805000009202703  NQ02         
D201202503100902089   0114987616003211×²¿ÞÃÞ¸ÞÊ²ºÞ³ÁÕ³ÌÚÂ¸      300U   3MLX2ÎÝ00001000003173000003173000035622610  PP5M971      
D201202503100902162   0114987086170741¸ÞØÒËßØÄÞ¼ÞÖ³0.5MG¢» 0.5MG PTP      100T00001000000823000000823000009802707  AA0071A      
D201202503100902162   0214987616003631ÍßÝÆ-ÄÞÙ Ìß×½ 32G      32G 4MM    14ÎÝX500002000001081000002162000000002909  PS7K16B-1    
D201202503100902163   0114987428879806ËÕ-ÏÛ¸ÞÐÂ¸½50ÁÕ³ÐØµÍ      300U     3MLX200002000002166000004332000024362704  D739655GJE   
D201202503100902163   0214987616003211×²¿ÞÃÞ¸ÞÊ²ºÞ³ÁÕ³ÌÚÂ¸      300U   3MLX2ÎÝ00003000003173000009519000035622610  PP5M971      
E200000130000112503100502                                                                                                       
S20902960013 05262978170000250310060025128128          0526297817                                                               
D2012025031016100958981014987246716185Êß·¼ÙCR12.5MG H 140T                    00001000004970000004970000057822706304E4J         
E200000030000012503100600                                                                                                       
S20901660013 05262978170000250308190049128128          0526297817                                                               
D2012025031008934     0114987123872997ÍÞÆ¼ÞËßÝ´Ý»Ý´Ý ¼ÞÖ³   PTP    4MG    100T00001000000909000000909000010202610  GR0965       
D2012025031008934     0214987376556712Ì´·¿Ì´Å¼ÞÝ´Ý»Ý´Ý ¼ÞÖIK£  PTP 60MG   100T00002000002558000005116000028702703  4K078A       
D2012025031008934     0314987123873758¼ÞÌ´ÆÄÞ-Ù´Ý»Ý´Ý ¼ÞÖ³  PTP   25MG    100T00001000000508000000508000005702706  H20035       
D2012025031008934     0414987081189960Û·¿ÌßÛÌ´Ý NA Ã-Ìß 10  10CMX14CM   7Ï²X1000005000001006000005030000011972710  X1224        
D2012025031008935     0114987376371117ÄØ±¿Þ×Ñ ¼ÞÖ³ 0.25MG   PTP 0.25MG    100T00001000000526000000526000005902909  J01300       
D2012025031008936     0114987058565032ÌÙÆÄ×¾ÞÊßÑ ¼ÞÖ³ 1MG   PTP    1MG    100T00001000000500000000500000005702709  2428         
D2012025031009292     0114987138802941029 ÂÑ× ÊÞ¸ÓÝÄÞ³Ä³               3GX42Î³00002000001890000003780000020792711  X28561       
D2012025031009292     0214987128087839¶Þ½ÄÛ-Ñ ¶ØÕ³ 66.7% (      66.7% 1.5GX11200001000001811000001811000020492710  J781A        
D2012025031009292     0314987080034711¾ÝÉ¼ÄÞ ¼ÞÖ³ 12MG ¢»Ü  PTP   12MG    100T00002000000460000000920000005102810  724904       
D2012025031009292     0414987614410608ÄÞÈÍß¼ÞÙ´Ý»Ý´Ý OD ¼ÞÄÞ£  PTP  5MG  14TX400001000001293000001293000014502609  P0044        
D2012025031009292     0514987035209713ÚÊÞÐËßÄÞ ¼ÞÖ³ 100MG   PTP  100MG    500T00001000003860000003860000050502710  4J79RT1      
D2012025031009292     0614987770504609±ÃÞÎ½ º-Ü ÁÖ³Ö³¼ÞÖ³   PTP   20MG    100T00001000000493000000493000005702707  IH4R         
D2012025031009292     0714987286113500»Ý¶Ï¸ÞÈ¼³Ñ ¼ÞÖ³ 330M  PTP  330MG    100T00001000000470000000470000005702712  4D34         
D2012025031009292     0814987123157575¶ÝÃÞ»ÙÀÝ ¼ÞÖ³ 8MG ¢±  PTP    8MG    100T00001000002664000002664000031302708  Y712A        
D2012025031009293     0114987081189656¶Þ×ÝÀÐÝ OD ¼ÞÖ³ 4MG   PTP    4MG   14TX400001000001028000001028000011532701  BB1B034      
D2012025031009293     0214987081100316Û·¿ÆÝ Ã-Ìß 100MG      10CMX14CM     70Ï²00001000001148000001148000012882710  X0424        
D2012025031009293     0314987081189960Û·¿ÌßÛÌ´Ý NA Ã-Ìß 10  10CMX14CM   7Ï²X1000001000001006000001006000011972710  X1224        
D2012025031010247     0114987116530132´¸ÒÂÄ Ê²ºÞ³¼ÞÖ³ LD    PTP           100T00001000004544000004544000051002708  P0508        
E200000200000182503081900                                                                                                       
