S20902690019 05262978170000250913110001128128          0526297817                                                               
D201202509163229473   0114987123154352À¹·ÔÌÞ¼ÞÖ³10MG PTP    10MG 10TX10       00001000008270000008270000094302802  568890       
E200000030000012509131100                                                                                                       
S20902690019 05262978170000250913120001128128          0526297817                                                               
D201202509163230773   01149871231391822MG¾Ù¼Ý ¼ÞÖ³ PTP       2MG 10TX10       00001000000540000000540000006203004  KL011        
E200000030000012509131200                                                                                                       
