S20901660013 05262978170000250108130114128128          0526297817                                                               
D2022025010807314     0114987123154246»Þ¸×½ Ê²ºÞ³¼ÞÖ³ HD    PTP           100T00001000007387000007387000086502609  555885       
E200000030000012501081301                                                                                                       
S20902690019 05262978170000250108130001128128          0526297817                                                               
D201202501099914008   011498712312712725MG±ØÅÐÝFÄ³²¼ÞÖ³PTP  25MG 10TX10       00004000000525000002100000005902909  KD071        
E200000030000012501081245                                                                                                       
