S20902020014 05262978170084250507100239128128          0526297817                                                               
D202202505070197986   0114987081184309ÒÄÎÙÐÝ´Ý»Ý´Ý¼ÞÖ³500M 500MG PTP      100T00005000000930000004650000010402708  P9A6339      
D202202505070197986   0214987770525604±ØÄÞÈÊßÂÁ27.5MG         27.5MG      14Ï²00001000003645000003645000040102710  Y4291        
E200000040000022505071002                                                                                                       
