S20902690019 05262978170000250829120002128128          0526297817                                                               
D201202508292626816   0114987123154352¿π∑‘Ãﬁºﬁ÷≥10MG PTP    10MG 10TX10       00001000008562000008562000094302801  568407       
D201202508292626816   0214987123416603Œﬁ∏ﬁÿŒﬁ∞ΩODºﬁ÷≥0.2MG¢¿π¿ﬁ√ ﬁ£100T       00001000000942000000942000010402710  KL031        
E200000040000022508291200                                                                                                       
S20902020014 05262978170780250829130246128128          0526297817                                                               
D201202508290468114   0114987128305216œ›ºﬁ‘€À∂¡’≥5MG±√µΩ         5MG0.5MLX2∑¬ƒ00006000006856000041136000076962612  D854975EA    
E200000030000012508291302                                                                                                       
S20902690019 05262978170000250829124501128128          0526297817                                                               
D201202509012638795   0114987123416627Œﬁ∏ﬁÿŒﬁ∞ΩODºﬁ÷≥0.3MG¢¿π¿ﬁ√ ﬁ£100T       00002000000909000001818000010402710  KL051        
E200000030000012508291300                                                                                                       
