S20902690019 05262978170000250908130001128128          0526297817                                                               
D201202509093019831   0114987222697415SPÄÛ°Á0.25MG¢Ò²¼Þ£  PTP     1200T       00002000006436000012872000070802906  04694        
E200000030000012509081245                                                                                                       
