S20901660013 05262978170000250630100109128128          0526297817                                                               
D2012025063006608     0114987428879806ËÕ-ÏÛ¸Þ ÐÂ¸½ 50 ÁÕ³      300ÀÝ² 3MLX2·ÂÄ00002000002120000004240000023802704  D739655GK    
D2012025063006608     0214987376711005ÍÞÀË½ÁÝÒ¼Ù»Ý´Ý ¼ÞÖ³ £ PTP    6MG    100T00001000000562000000562000006302709  K05500       
D2012025063006608     0314987081186907Û½ÊÞ½ÀÁÝ ¼ÞÖ³ 2.5MG   PTP  2.5MG    100T00001000000945000000945000010402706  89140        
D2012025063006608     0414987123154185À¹ÙÀÞ Ê²ºÞ³¼ÞÖ³       PTP           100T00001000001728000001728000019402704  KE011        
D2012025063006608     0514987123154352À¹·ÔÌÞ ¼ÞÖ³ 10MG      PTP   10MG    100T00001000008401000008401000094302710  566810       
D2012025063006608     0614987138800138001 ÂÑ× ¶ÂºÝÄ³           ¶ÐÊÞº  2.5GX18900001000005701000005701000063312804  Y03291       
D2012025063006608     0714987138806840068 ÂÑ× ¼Ô¸Ô¸¶Ý¿Þ³Ä³           2.5GX42Î³00002000000992000001984000010922802  X62201       
D2012025063006608     0814987116530170´¸ÒÂÄ Ê²ºÞ³¼ÞÖ³ HD    PTP           100T00001000004143000004143000046502711  P2547        
D2012025063006609     0114987376556712Ì´·¿Ì´Å¼ÞÝ´Ý»Ý´Ý ¼ÞÖIK£  PTP 60MG   100T00001000002608000002608000028702704  4K097A       
D2012025063006609     0214987376556712Ì´·¿Ì´Å¼ÞÝ´Ý»Ý´Ý ¼ÞÖIK£  PTP 60MG   100T00001000002608000002608000028702704  4K097A       
D2012025063006609     0314987376056212ÄºÌ´Û-ÙÆºÁÝ»Ý´½ÃÙ ¶Ì¢ÆÁ²º³£  PTP    100P00001000000681000000681000007502711  KP1501       
D2012025063006609     0414987138800145001 ÂÑ× ¶ÂºÝÄ³                 2.5GX42Î³00002000001279000002558000014072803  X65031       
D2012025063006609     0514987080394013ÍÞ»ÞÌ²ÌÞ×-Ä SR ¼ÞÖ³   PTP  200MG    100T00001000000927000000927000010402707  724707       
D2012025063006609     0614987058173381±ÙÌ±¶Ù¼ÄÞ-Ù ¼ÞÖ³ 1.0  PTP  1.0Ï²¸ÛG 100T00001000000554000000554000006102801  2507         
D2012025063006609     0714987123416627ÎÞ¸ÞØÎÞ-½ OD¼ÞÖ³ 0.3£ PTP  0.3MG    100T00003000000926000002778000010402709  KK111        
D2012025063006609     0814987123417280Û·¿ÌßÛÌ´ÝNA ¼ÞÖ³ 60M  PTP   60MG    100T00002000000900000001800000010102707  H40289       
D2012025063006610     0114987123417280Û·¿ÌßÛÌ´ÝNA ¼ÞÖ³ 60M  PTP   60MG    100T00001000000900000000900000010102707  H40289       
D2012025063006610     0214987123871525ÊßÝÃÁÝ »Ý 20% ¢NIG£         20%    1000G00001000008625000008625000095002708  H11207       
D2012025063006610     0314987081185719Ì´ÌÞ·¿½ÀÂÄ ¼ÞÖ³ 10MG  PTP   10MG    100T00001000000554000000554000006102710  50284        
D2012025063006610     0414987081182664Û»ÙÀÝ K ¼ÞÖ³ 25MG ¢D  PTP   25MG    100T00001000000945000000945000010402709  B3A0141      
D2012025063006610     0514987320603530ÍÓÅ-¾Þ Ê²ºÞ³¼ÞÖ³      PTP           100T00001000000902000000902000009602709  J0275        
D2012025063006610     0614987123875271ÌÛ¾ÐÄÞ ¼ÞÖ³ 40MG ¢NI  PTP   40MG    100T00001000000588000000588000006602802  H90733       
D2012025063006610     0714987376069519±ÄÙÊÞ½ÀÁÝ ¼ÞÖ³ 10MG   PTP   10MG    100T00001000000945000000945000010402708  HP0201       
D2012025063006610     0814987614415504±ÑÊÞÛ Ê²ºÞ³¼ÞÖ³ ¢»ÝÄ  PTP         14TX1000001000001896000001896000021282706  P0310        
D2012025063006611     0114987173015818±½ÞÉ-Ù ³¶Þ²´· 4%             4%   5MLX1000001000001083000001083000012152802  04146        
D2012025063006611     0214987087003871ØÝÃÞÛÝ VG ¸Ø-Ñ 0.12%               5GX1000001000001234000001234000013852802  5851         
D2012025063006611     0314987306060128Ì´ÙËÞÅ¸½ÁÂ¸ ÅÝº³ 3%          3%   40GX1000001000001604000001604000018002803  085P1        
D2012025063006611     0414987081189960Û·¿ÌßÛÌ´Ý NA Ã-Ìß 10  10CMX14CM   7Ï²X1000002000001098000002196000012322802  30725        
D2012025063006612     0114987128320011ÌÞÛÁ¿Þ×Ñ ¼ÞÖ³ 0.25MG  PTP 0.25MG    100T00001000000927000000927000010402710  J830         
D2012025063006613     0114987058565032ÌÙÆÄ×¾ÞÊßÑ ¼ÞÖ³ 1MG   PTP    1MG    100T00001000000526000000526000005902801  2446         
E200000320000302506301001                                                                                                       
