S20902020014 05262978173560250401050305128128          0526297817                                                               
D201202504010139786   0114987116530132´¸ÒÂÄÊ²ºÞ³¼ÞÖ³LD           PTP      100T00001000004291000004291000047202708  P0510        
D201202504010139786   0214987233102878½-¸Þ×¼ÞÖ³50MG         50MG PTP      100T00001000014782000014782000162602705  24058Y1      
D201202504010139787   0114987035654209×º-ÙNFÊ²ºÞ³¹²ÁÖ³Ö³´·ÊÞÅÅÌÚ-ÊÞ-  200MLX2800002000005447000010894000059922601  X2501092     
D201202504010140360   0114987616002467ÉÎÞ×ËßÂÄÞÁÕ³ÌÚÂ¸½ÍßÝ      300U     3MLX200003000002351000007053000025862608  PT6GA54      
D201202504010140360   0214987616002481ÚÍÞÐÙÁÕ³ÌÚÂ¸½ÍßÝ          300U   3MLX2ÎÝ00001000002589000002589000028482609  PT6EK25      
D201202504010140362   0114987185809900¼ÞÔÇËÞ±¼ÞÖ³50MG       (¶Â¾Ý²Ø) PTP  100T00001000007464000007464000082102606  Y019051      
E200000080000062504010503                                                                                                       
