S20902690019 05262978170000250526180002128128          0526297817                                                               
D201202505277475105   0114987081187331ØÊÞ°Û·»ÊÞÝ ¼ÞÖ³15mg ¢ÊÞ²´ÙPTP100T       00001000020584000020584000226702707  JPS8119      
D201202505277475105   0214987116530170´¸ÒÂÄÊ²ºÞ³¼ÞÖ³HD PTP         100T       00005000004221000021105000046502710  P2530        
E200000040000022505261800                                                                                                       
S20902020014 05262978172923250527050239128128          0526297817                                                               
D201202505270231262   0114987641074194²ÝÃÊÞÝ¸Ø-Ñ1%                1%    25GX1000001000000750000000750000008252712  15291        
D201202505270231262   0214987190020338´¿ÒÌß×¿Þ-Ù¶Ìß¾Ù20MG¢  20MG PTP    100CAP00001000003436000003436000037802610  12830        
D201202505270231262   0314987155152074´ÙÃÞ¶Ù¼Ä-Ù¶Ìß¾Ù0.75U0.75UG PTP    100CAP00001000001755000001755000019302710  D0740        
D201202505270231262   0414987439095851´Ý¼Õ±¥Hº-Ë-±¼Þ                250MLX24¶Ý00001000004964000004964000054602601  74030DS      
D201202505270231262   0514987081185412¶ÙÍÞ¼ÞÛ-Ù¼ÞÖ³1.25MG¢1.25MG PTP      100T00001000000945000000945000010402703  W5A0024      
D201202505270231263   0114987051183127¸ÞÙÍÞ½Ê²ºÞ³¼ÞÖ³            PTP      100T00001000002345000002345000025802909  CVZ1904      
D201202505270231263   0214987614410516ÄÞÈÍß¼ÞÙ´Ý»Ý´ÝOD¼ÞÖ³   3MG PTP       28T00002000000374000000748000003642706  P0041        
D201202505270231263   0314987081189960Û·¿ÌßÛÌ´ÝNAÃ-Ìß100MG     100MG    7Ï²X1000003000001120000003360000012322801  20525        
D201202505270231263   0414987081186907Û½ÊÞ½ÀÁÝ¼ÞÖ³2.5MG¢DS 2.5MG PTP      100T00001000000945000000945000010402705  88740        
D201202505270231264   0114987103010982¼ÝÚ¼¶ÙÎÞÝ»Þ»Þ²                       12º00002000000804000001608000008842802  52160        
D201202505270231328   0114987081184477±ÏÙ´ÂÄÊ²ºÞ³¼ÞÖ³3ÊÞÝ¢       PTP      100T00001000001345000001345000014802610  Q3A0147      
D201202505270231328   0214987080034711¾ÝÉ¼ÄÞ¼ÞÖ³12MG¢»Ü²£   12MG PTP      100T00001000000482000000482000005302811  724Y10       
D201202505270231329   0114987616003655µ¾ÞÝËßÂ¸Ë¶ÁÕ³2MG           2MG 1.5MLX1ÎÝ00001000010137000010137000111512703  PP5M711      
E200000150000132505270502                                                                                                       
S20901660013 05262978170000250526223040128128          0526297817                                                               
D2012025052747746     0114987123416627ÎÞ¸ÞØÎÞ-½ OD¼ÞÖ³ 0.3£ PTP  0.3MG    100T00001000000926000000926000010402709  KK061        
E200000030000012505262230                                                                                                       
