S20902690019 05262978170000250902100001128128          0526297817                                                               
D201202509022803338   0114987123159036·ÔÌÞËßØÝ Ê²ºÞ³¼ÞÖ³  PTP     10X10       00001000007929000007929000090102711  568319       
D201202509022803338   0214987123873857»ÙÎß¸ÞÚ×°Ä´Ý»Ý´Ý¼ÞÖ³100MG PTP100T       00002000002485000004970000028602802  H70731       
D201202509022803338   0314987123872812¼Û½À¿Þ°Ù¼ÞÖ³50MG¢NIG£ PTP    100T       00001000000927000000927000010402711  H50153       
D201202509022803338   0414987925106603¾Û¹ÝL¼ÞÖ³120MG PTP   120MG   100T       00001000005738000005738000066802710  04040        
D201202509022803338   0514987123154352À¹·ÔÌÞ¼ÞÖ³10MG PTP    10MG 10TX10       00002000008270000016540000094302801  568407       
D201202509022803339   0114987376305617ËßÙÌ´ÆÄÞÝ ¼ÞÖ³200MG¢ÆÁ²º³£PTP100T       00001000011837000011837000138202801  K00100       
D201202509022803339   0214987376305617ËßÙÌ´ÆÄÞÝ ¼ÞÖ³200MG¢ÆÁ²º³£PTP100T       00003000011837000035511000138202801  K00300       
D201202509022803339   0314987376556712Ì´·¿Ì´Å¼ÞÝ´Ý»Ý´Ý¼ÞÖ³60MG¢SAN 100T       00001000002605000002605000028702702  4K050A       
D201202509022803339   0414987123416603ÎÞ¸ÞØÎÞ°½OD¼ÞÖ³0.2MG¢À¹ÀÞÃÊÞ£100T       00001000000909000000909000010402710  KL031        
E200000110000092509021000                                                                                                       
