S20902020014 05262978170914250610140300128128          0526297817                                                               
D201202506100256449   0114987155004168ÌÙ½ÙÁ±ÐÝ¼ÞÖ³25MG¢Ä-Ü  25MG PTP     1000T00001000005182000005182000057002711  A0765        
D201202506100256449   0214987155103069ÆÌ´¼ÞËßÝCR¼ÞÖ³20MG¢Ä  20MG PTP      100T00001000000627000000627000006902708  D3570        
D201202506100256449   0314987641077829¹ÄÌßÛÌ´ÝÊßÂÌßXR120MG     120MG      70Ï²00001000001120000001120000012322608  35281        
E200000050000032506101403                                                                                                       
