S20902020014 05262978170146250225110254128128          0526297817                                                               
D201202502250838628   0114987155114027±Ó·¼¼ØÝ¶Ìß¾Ù250MG¢Ä- 250MG PTP    100CAP00001000000908000000908000010102611  A0268        
D202202502250838725   0114987185807555¼ÞÔÇËÞ±¼ÞÖ³25MG       25MG PTP      100T00001000005162000005162000060102510  Y006872      
D202202502250838725   0214987222000505ÒÏÝÁÝ´Ý»Ý´ÝOD¼ÞÖ³10M  10MG PTP       14T00001000000523000000523000005912609  00105        
E200000050000032502251102                                                                                                       
S20902690019 05262978170000250225110001128128          0526297817                                                               
D201202502252646247   0114987376069519±ÄÙÊÞ½ÀÁÝ¼ÞÖ³10MG¢ÆÁº³£ PTP  100T       00001000000999000000999000011002701  AP0101       
D201202502252646247   0214987376075312ËÞ¿ÌßÛÛ°ÙÌÏÙ»Ý´Ý¼ÞÖ³2.5MG¢ÆÁ²100T       00001000000883000000883000010102709  J01700       
E200000040000022502251100                                                                                                       
S20902690019 05262978170000250225120004128128          0526297817                                                               
D201202502252648188   0114987058172384±ÙÌ±¶Ù¼ÄÞ°Ù ¼ÞÖ³0.5 UG PTP   100T       00001000000530000000530000005902710  2455         
E200000030000012502251200                                                                                                       
