S20902690019 05262978170000250901124501128128          0526297817                                                               
D201202509022704387   0114987123415880×Ý¿Ìß×¿Þ°ÙOD¼ÞÖ³15MG¢À¹ÀÞÃÊÞ£100T       00001000000962000000962000011302802  LC361        
D201202509022707418   0114987123159036·ÔÌÞËßØÝ Ê²ºÞ³¼ÞÖ³  PTP     10X10       00001000007929000007929000090102711  568319       
D201202509022707418   0214987123873857»ÙÎß¸ÞÚ×°Ä´Ý»Ý´Ý¼ÞÖ³100MG PTP100T       00001000002485000002485000028602802  H70731       
D201202509022707418   0314987123872812¼Û½À¿Þ°Ù¼ÞÖ³50MG¢NIG£ PTP    100T       00001000000927000000927000010402711  H50153       
D201202509022707418   0414987925106603¾Û¹ÝL¼ÞÖ³120MG PTP   120MG   100T       00001000005738000005738000066802710  04040        
D201202509022707418   0514987123154352À¹·ÔÌÞ¼ÞÖ³10MG PTP    10MG 10TX10       00001000008270000008270000094302801  568407       
D201202509022707419   0114987376075510ËÞ¿ÌßÛÛ°ÙÌÏÙ»Ý´Ý¼ÞÖ³0.625¢ÆÁ²100T       00001000000912000000912000010402801  AR0801       
D201202509022707419   0214987376305617ËßÙÌ´ÆÄÞÝ ¼ÞÖ³200MG¢ÆÁ²º³£PTP100T       00002000011837000023674000138202711  J01100       
D201202509022707419   0314987376305617ËßÙÌ´ÆÄÞÝ ¼ÞÖ³200MG¢ÆÁ²º³£PTP100T       00002000011837000023674000138202801  K00100       
D201202509022707419   0414987376556712Ì´·¿Ì´Å¼ÞÝ´Ý»Ý´Ý¼ÞÖ³60MG¢SAN 100T       00001000002605000002605000028702702  4K050A       
D201202509022707419   0514987123416603ÎÞ¸ÞØÎÞ°½OD¼ÞÖ³0.2MG¢À¹ÀÞÃÊÞ£100T       00001000000909000000909000010402710  KL031        
E200000130000112509011251                                                                                                       
