S20902020014 05262978171000250513140308128128          0526297817                                                               
D201202505130209002   0114987672957640ÛÍßÐÝ¶Ìß¾Ù1MG          1MG PTP    100CAP00001000000891000000891000009802806  181ADF       
E200000030000012505131403                                                                                                       
