S20902690019 05262978170000250805110001128128          0526297817                                                               
D201202508051577542   0114987123155144Á×°ÁÞÝ S¼ÞÖ³50UG PTP  50UG   500T       00001000004727000004727000052002711  Y632A        
D201202508051577542   0214987376056212ÄºÌ´Û°ÙÆºÁÝ»Ý´½ÃÙ¶Ìß¾Ù200MG 100CP       00001000000681000000681000007502711  KP1401       
E200000040000022508051100                                                                                                       
S20902020014 05262978170950250805140251128128          0526297817                                                               
D201202508050372923   0114987233102878½-¸Þ×¼ÞÖ³50MG         50MG PTP      100T00001000014450000014450000149702708  24080Y1      
D201202508050372923   0214987087003826ØÝÃÞÛÝ-VGÅÝº³0.12%       0.12%   5GX10²Ø00001000001223000001223000013852804  8798         
D201202508050372923   0314987081100316Û·¿ÆÝÃ-Ìß100MG         10X14CM    7Ï²X1000001000001059000001059000012322803  40725        
D201202508050373095   0114987173015818±½ÞÉ-Ù³¶Þ²´·4%              4%  5MLX10ÎÝ00001000001081000001081000012152803  04152        
D201202508050373095   0214987155165241ËÞÙÀÞ¸ÞØÌßÁÝ¼ÞÖ³50MG  50MG PTP      100T00001000001546000001546000018402710  D0020        
D201202508050373095   0314987080773016Ìß×ÊÞ½ÀÁÝNA¼ÞÖ³5MG¢»   5MG PTP      100T00001000000931000000931000010402712  724Y02       
D201202508050373095   0414987081189960Û·¿ÌßÛÌ´ÝNAÃ-Ìß100MG     100MG    7Ï²X1000001000001057000001057000012322802  31325        
D201202508050373351   0114987035576402µ-´½ÜÝ(OS-1)                    500MLX240000200000346700000693400000000260908             
E200000100000082508051402                                                                                                       
