S20902690019 05262978170000250919100001128128          0526297817                                                               
D201202509193552846   0114987123154352¿π∑‘Ãﬁºﬁ÷≥10MG PTP    10MG 10TX10       00002000008270000016540000094302802  568993       
D201202509193552846   0214987123158879Ãﬂ€ ﬂºﬁ∞Ÿ ºﬁ÷≥50MG PTP 50MG  100T       00001000000899000000899000010103001  Y133A        
D201202509193554283   011498712312712725MG±ÿ≈–›Fƒ≥≤ºﬁ÷≥PTP  25MG 10TX10       00001000000544000000544000006103002  KJ051        
D201202509193554283   0214987123416627Œﬁ∏ﬁÿŒﬁ∞ΩODºﬁ÷≥0.3MG¢¿π¿ﬁ√ ﬁ£100T       00001000000909000000909000010402712  LA021        
E200000060000042509191000                                                                                                       
