S20902690019 05262978170000250303190003128128          0526297817                                                               
D201202503042917883   0114987376069410±ƒŸ ﬁΩ¿¡›ºﬁ÷≥5MG¢∆¡≤∫≥£ PTP  100T       00001000000918000000918000010102701  AP0201       
D201202503042917883   0214987123001175ºﬁŸ—€ ≤∫ﬁ≥ºﬁ÷≥HD¢¿π¿ﬁ√ ﬁ£ PTP100T       00001000002614000002614000031302704  561996       
E200000040000022503031900                                                                                                       
S20902020014 05262978173081250304050247128128          0526297817                                                               
D201202503040891524   0114987476111514“≈√ƒ⁄…›∂ÃﬂæŸ15MG¢YD£  15MG PTP    100CAP00001000001036000001036000011402710  Y24K02       
D201202503040891788   0114987116530170¥∏“¬ƒ ≤∫ﬁ≥ºﬁ÷≥HD           PTP      100T00001000004248000004248000050202708  P2460        
D201202503040891788   0214987080783015º› ﬁΩ¿¡›ºﬁ÷≥5MG¢SW£    5MG PTP      100T00001000001653000001653000018802704  524202       
D201202503040891788   0314987222682152Àﬁ◊…±ºﬁ÷≥20MG         20MG PTP      100T00001000004590000004590000053202704  4D85         
D201202503040891788   0414987081186907€Ω ﬁΩ¿¡›ºﬁ÷≥2.5MG¢DS 2.5MG PTP      100T00001000001015000001015000011402703  86540        
D201202503040891789   0114987616003655µæﬁ›Àﬂ¬∏À∂¡’≥2MG           2MG 1.5MLX1Œ›00001000009672000009672000108792703  PP5M196      
D201202503040891789   0214987428879905À’-œ€∏ﬁ¡’≥–ÿµÕﬂ›          300U     3MLX200001000002106000002106000023682611  D690490ER    
D201202503040891933   0114987081187171µŸ“ªŸ¿›ODºﬁ÷≥20MG¢DS  20MG PTP      100T00001000001707000001707000020202706  OMA4045      
D201202503040891933   0214987476113310ƒ◊»∑ª—ª›ºﬁ÷≥250MG¢YD 250MG PTP      100T00001000000918000000918000010102710  Y24K25       
D201202503040891933   0314987081186907€Ω ﬁΩ¿¡›ºﬁ÷≥2.5MG¢DS 2.5MG PTP      100T00001000001015000001015000011402703  86540        
E200000120000102503040502                                                                                                       
