S20902020014 05262978173475250414050235128128          0526297817                                                               
D201202504140162863   0114987616003631ÍßÝÆ-ÄÞÙ Ìß×½ 32G      32G 4MM    14ÎÝX500004000001081000004324000000002911  PS7M04B-1    
D201202504140162864   0114987616003167ÄÚ¼-ÊÞÁÕ³ÌÚÂ¸½ÀÂÁ         300U     3MLX200002000003347000006694000036822610  PP5M972      
D201202504140162864   0214987616002467ÉÎÞ×ËßÂÄÞÁÕ³ÌÚÂ¸½ÍßÝ      300U     3MLX200006000002351000014106000025862608  PT6GA56      
D201202504140163818   0114987616003631ÍßÝÆ-ÄÞÙ Ìß×½ 32G      32G 4MM    14ÎÝX500003000001081000003243000000002911  PS7M04B-1    
D201202504140163819   0114987616003167ÄÚ¼-ÊÞÁÕ³ÌÚÂ¸½ÀÂÁ         300U     3MLX200001000003347000003347000036822610  PP5M972      
D201202504140163895   0114987616002467ÉÎÞ×ËßÂÄÞÁÕ³ÌÚÂ¸½ÍßÝ      300U     3MLX200001000002351000002351000025862608  PT6GA56      
E200000080000062504140502                                                                                                       
S20901660013 05262978170000250412185855128128          0526297817                                                               
D2012025041423115     0114987123873758¼ÞÌ´ÆÄÞ-Ù´Ý»Ý´Ý ¼ÞÖ³  PTP   25MG    100T00001000000526000000526000005902710  H40545       
D2012025041423115     0214987123158879ÌßÛÊß¼Þ-Ù ¼ÞÖ³ 50MG   PTP   50MG    100T00001000000918000000918000010102910  Y127A        
D2012025041423116     0114987058565032ÌÙÆÄ×¾ÞÊßÑ ¼ÞÖ³ 1MG   PTP    1MG    100T00001000000526000000526000005902710  2435         
D2012025041423907     0114987376305617ËßÙÌ´ÆÄÞÝ ¼ÞÖ³ 200MG  PTP  200MG    100T00001000012312000012312000138202709  J00900       
D2012025041423907     0214987123416603ÎÞ¸ÞØÎÞ-½ OD¼ÞÖ³ 0.2£ PTP  0.2MG    100T00001000000926000000926000010402707  KH031        
D2012025041423907     0314987123872973ËßÙ¼¶²ÆÄÞ´Ý»Ý´Ý ¶Ìß¾£  PTP  50MG    100P00001000001799000001799000019802705  H10671       
D2012025041424203     0114987123001175¼ÞÙÑÛ Ê²ºÞ³¼ÞÖ³ HD ¢  PTP           100T00001000002468000002468000027702705  563753       
D2012025041424203     0214987312126641ÐÔ BM ¼ÞÖ³            PTP           100T00002000000529000001058000005902802  486C3        
D2012025041424545     0114987081185719Ì´ÌÞ·¿½ÀÂÄ ¼ÞÖ³ 10MG  PTP   10MG    100T00002000000554000001108000006102708  50264        
E200000110000092504121858                                                                                                       
