S20902020014 05262978172884250312050242128128          0526297817                                                               
D201202503120906402   0114987087016246±ÙÒÀÅÝº³                  0.1%     5GX1000001000000986000000986000011102701  6195         
D201202503120906637   0114987114077202ËÞÌÞ×Ï²¼Ý¼ÞÖ³100MG   100MG PTP      100T00001000002000000002000000022002707  MA5988       
D201202503120906637   0214987709500719ÆºÁÝ»Ý±ÐÄÞ»Ý10%¢¿ÞÝÈ   10% ÊÞ×      500G00001000005992000005992000053502910  CEX90        
D201202503120906761   0114987080633112Æº×Ý¼ÞÙ¼ÞÖ³5MG         5MG PTP      100T00002000000536000001072000005902702  624101       
E200000060000042503120502                                                                                                       
S20902960013 05262978170000250312060023128128          0526297817                                                               
D2012025031216108309721014987246706193ÃÞÙÓÍÞ-ÄÅÝº³0.05% 30G                   00005000000430000002150000005012711307H9M         
E200000030000012503120600                                                                                                       
S20902690019 05262978170000250312070002128128          0526297817                                                               
D201202503123248330   0114987123875240ÌÛ¾ÐÄÞ¼ÞÖ³20MG¢NIG£ PTP      100T       00001000000529000000529000006102712  H60709       
E200000030000012503120700                                                                                                       
