S20901660013 05262978170000250127100125128128          0526297817                                                               
D2012025012738563     0114987123001175¼ÞÙÑÛ Ê²ºÞ³¼ÞÖ³ HD ¢  PTP           100T00001000002614000002614000031302703  560870       
D2012025012738563     0214987123871051´ÍßØ¿ÞÝ´Ý»Ý´Ý ¼ÞÖ³ 5  PTP   50MG    100T00001000000526000000526000005902706  H10757       
D2012025012738563     0314987123144049ÍÞ²½Ý OD ¼ÞÖ³ 0.2     PTP  0.2MG    100T00001000001426000001426000016002704  KE021        
D2012025012738564     01149871231391822MG ¾Ù¼Ý ¼ÞÖ³         PTP    2MG    100T00001000000535000000535000006002912  KG011        
D2012025012738565     0114987058565032ÌÙÆÄ×¾ÞÊßÑ ¼ÞÖ³ 1MG   PTP    1MG    100T00001000000500000000500000005702707  2423         
E200000070000052501271001                                                                                                       
S20902020014 05262978170126250127100254128128          0526297817                                                               
D201202501270780632   0114987174422011ÍÊßØÝÙ²¼ÞÌÞÂ¼Â¶Þ²Ö³± ½ÌßÚ-0.3%   100GX1000001000007337000007337000082002707  C24189       
E200000030000012501271002                                                                                                       
