S20901660013 05262978170000251006100121128128          0526297817                                                               
D2012025100621971     0114987123875240ÌÛ¾ÐÄÞ ¼ÞÖ³ 20MG ¢NI  PTP   20MG    100T00001000000536000000536000006302804  H90807       
D2012025100621971     0214987858210125×¼ÞÚ½ ¼ÞÖ³ 150MG      PTP  150MG  14TX1000001000011287000011287000126702704  M1060M1      
D2012025100621971     0314987080680017¶ÙÍÞ¼ÞÛ-Ù ¼ÞÖ³ 2.5MG  PTP  2.5MG    100T00001000000926000000926000010402709  724906       
D2012025100621971     0414987476170306±ÑÊÞÛ Ê²ºÞ³¼ÞÖ³ ¢YD£  PTP           100T00002000001382000002764000015202801  Y25B08       
D2012025100621971     0514987476119855ÃÌßÚÉÝ ¶Ìß¾Ù 50MG ¢Y  PTP   50MG    100P00002000000591000001182000006502806  Y25G04       
D2012025100621971     0614987376085403Û»ÙËÄÞ Ê²ºÞ³¼ÞÖ³ HD   PTP           100T00001000002872000002872000031602709  J04000       
E200000080000062510061001                                                                                                       
