S20902690019 05262978170000250130100001128128          0526297817                                                               
D201202501301592316   0114987476119855ÃÌßÚÉÝ¶Ìß¾Ù50mg¢YD£ PTP     100CP       00002000000582000001164000006302707  Y24H06       
D201202501301592316   0214987476119855ÃÌßÚÉÝ¶Ìß¾Ù50mg¢YD£ PTP     100CP       00001000000582000000582000006302710  Y24K02       
D201202501301592316   0314987476117516´ÊÞ½ÁÝ¼ÞÖ³5MG ¢YD£  PTP      100T       00001000001654000001654000018202510  Y22K02       
D201202501301592316   0414987476169409ÅÌÄËß¼ÞÙOD¼ÞÖ³25MG¢YD£ PTP   100T       00001000000918000000918000010102707  Y24H01       
D201202501301592316   0514987476180503ÚÎÞ¾ÁØ¼ÞÝ´Ý»Ý´ÝÄÞ×²¼ÛÂÌß0.0.5X100       00001000002504000002504000027552704  Y24E04       
E200000070000052501301000                                                                                                       
